{
  "contracts/test/TestERC20.sol": {
    "TestERC20": {
      "abi": [
        {
          "inputs": [],
          "stateMutability": "nonpayable",
          "type": "constructor"
        },
        {
          "anonymous": false,
          "inputs": [
            {
              "indexed": true,
              "internalType": "address",
              "name": "owner",
              "type": "address"
            },
            {
              "indexed": true,
              "internalType": "address",
              "name": "spender",
              "type": "address"
            },
            {
              "indexed": false,
              "internalType": "uint256",
              "name": "amount",
              "type": "uint256"
            }
          ],
          "name": "Approval",
          "type": "event"
        },
        {
          "anonymous": false,
          "inputs": [
            {
              "indexed": true,
              "internalType": "address",
              "name": "from",
              "type": "address"
            },
            {
              "indexed": true,
              "internalType": "address",
              "name": "to",
              "type": "address"
            },
            {
              "indexed": false,
              "internalType": "uint256",
              "name": "amount",
              "type": "uint256"
            }
          ],
          "name": "Transfer",
          "type": "event"
        },
        {
          "inputs": [],
          "name": "DOMAIN_SEPARATOR",
          "outputs": [
            {
              "internalType": "bytes32",
              "name": "",
              "type": "bytes32"
            }
          ],
          "stateMutability": "view",
          "type": "function"
        },
        {
          "inputs": [
            {
              "internalType": "address",
              "name": "",
              "type": "address"
            },
            {
              "internalType": "address",
              "name": "",
              "type": "address"
            }
          ],
          "name": "allowance",
          "outputs": [
            {
              "internalType": "uint256",
              "name": "",
              "type": "uint256"
            }
          ],
          "stateMutability": "view",
          "type": "function"
        },
        {
          "inputs": [
            {
              "internalType": "address",
              "name": "spender",
              "type": "address"
            },
            {
              "internalType": "uint256",
              "name": "amount",
              "type": "uint256"
            }
          ],
          "name": "approve",
          "outputs": [
            {
              "internalType": "bool",
              "name": "",
              "type": "bool"
            }
          ],
          "stateMutability": "nonpayable",
          "type": "function"
        },
        {
          "inputs": [
            {
              "internalType": "address",
              "name": "",
              "type": "address"
            }
          ],
          "name": "balanceOf",
          "outputs": [
            {
              "internalType": "uint256",
              "name": "",
              "type": "uint256"
            }
          ],
          "stateMutability": "view",
          "type": "function"
        },
        {
          "inputs": [
            {
              "internalType": "bool",
              "name": "blocking",
              "type": "bool"
            }
          ],
          "name": "blockTransfer",
          "outputs": [],
          "stateMutability": "nonpayable",
          "type": "function"
        },
        {
          "inputs": [],
          "name": "blocked",
          "outputs": [
            {
              "internalType": "bool",
              "name": "",
              "type": "bool"
            }
          ],
          "stateMutability": "view",
          "type": "function"
        },
        {
          "inputs": [],
          "name": "decimals",
          "outputs": [
            {
              "internalType": "uint8",
              "name": "",
              "type": "uint8"
            }
          ],
          "stateMutability": "view",
          "type": "function"
        },
        {
          "inputs": [
            {
              "internalType": "address",
              "name": "to",
              "type": "address"
            },
            {
              "internalType": "uint256",
              "name": "amount",
              "type": "uint256"
            }
          ],
          "name": "mint",
          "outputs": [
            {
              "internalType": "bool",
              "name": "",
              "type": "bool"
            }
          ],
          "stateMutability": "nonpayable",
          "type": "function"
        },
        {
          "inputs": [],
          "name": "name",
          "outputs": [
            {
              "internalType": "string",
              "name": "",
              "type": "string"
            }
          ],
          "stateMutability": "view",
          "type": "function"
        },
        {
          "inputs": [],
          "name": "noReturnData",
          "outputs": [
            {
              "internalType": "bool",
              "name": "",
              "type": "bool"
            }
          ],
          "stateMutability": "view",
          "type": "function"
        },
        {
          "inputs": [
            {
              "internalType": "address",
              "name": "",
              "type": "address"
            }
          ],
          "name": "nonces",
          "outputs": [
            {
              "internalType": "uint256",
              "name": "",
              "type": "uint256"
            }
          ],
          "stateMutability": "view",
          "type": "function"
        },
        {
          "inputs": [
            {
              "internalType": "address",
              "name": "owner",
              "type": "address"
            },
            {
              "internalType": "address",
              "name": "spender",
              "type": "address"
            },
            {
              "internalType": "uint256",
              "name": "value",
              "type": "uint256"
            },
            {
              "internalType": "uint256",
              "name": "deadline",
              "type": "uint256"
            },
            {
              "internalType": "uint8",
              "name": "v",
              "type": "uint8"
            },
            {
              "internalType": "bytes32",
              "name": "r",
              "type": "bytes32"
            },
            {
              "internalType": "bytes32",
              "name": "s",
              "type": "bytes32"
            }
          ],
          "name": "permit",
          "outputs": [],
          "stateMutability": "nonpayable",
          "type": "function"
        },
        {
          "inputs": [
            {
              "internalType": "bool",
              "name": "noReturn",
              "type": "bool"
            }
          ],
          "name": "setNoReturnData",
          "outputs": [],
          "stateMutability": "nonpayable",
          "type": "function"
        },
        {
          "inputs": [],
          "name": "symbol",
          "outputs": [
            {
              "internalType": "string",
              "name": "",
              "type": "string"
            }
          ],
          "stateMutability": "view",
          "type": "function"
        },
        {
          "inputs": [],
          "name": "totalSupply",
          "outputs": [
            {
              "internalType": "uint256",
              "name": "",
              "type": "uint256"
            }
          ],
          "stateMutability": "view",
          "type": "function"
        },
        {
          "inputs": [
            {
              "internalType": "address",
              "name": "to",
              "type": "address"
            },
            {
              "internalType": "uint256",
              "name": "amount",
              "type": "uint256"
            }
          ],
          "name": "transfer",
          "outputs": [
            {
              "internalType": "bool",
              "name": "",
              "type": "bool"
            }
          ],
          "stateMutability": "nonpayable",
          "type": "function"
        },
        {
          "inputs": [
            {
              "internalType": "address",
              "name": "from",
              "type": "address"
            },
            {
              "internalType": "address",
              "name": "to",
              "type": "address"
            },
            {
              "internalType": "uint256",
              "name": "amount",
              "type": "uint256"
            }
          ],
          "name": "transferFrom",
          "outputs": [
            {
              "internalType": "bool",
              "name": "ok",
              "type": "bool"
            }
          ],
          "stateMutability": "nonpayable",
          "type": "function"
        }
      ],
      "evm": {
        "bytecode": {
          "linkReferences": {},
          "object": "60e060405234620001ad576200001462000218565b60206505465737432360d41b818301526200002e6200022d565b64054535432360dc1b8282015282519091906001600160401b0381116200019d575b6000916200006a8262000064855462000242565b6200027f565b80601f83116001146200010f57508190620000a195849262000103575b50508160011b916000199060031b1c191617905562000333565b60126080524660a052620000b462000435565b60c052620000c760ff1960065416600655565b620000d861ff001960065416600655565b60405161105a90816200056982396080518161054c015260a05181610cda015260c05181610d010152f35b01519050388062000087565b600080529194601f1986167f290decd9548b62a8d60345a988386fc84ba6bc95484008f6362f93160ef3e5639385905b82821062000184575050916001939187620000a19894106200016a575b505050811b01905562000333565b015160001960f88460031b161c191690553880806200015c565b806001869782949787015181550196019401906200013f565b620001a7620001b2565b62000050565b600080fd5b50634e487b7160e01b600052604160045260246000fd5b604081019081106001600160401b03821117620001e557604052565b620001ef620001b2565b604052565b601f909101601f19168101906001600160401b03821190821017620001e557604052565b604051906200022782620001c9565b60068252565b604051906200023c82620001c9565b60058252565b90600182811c9216801562000274575b60208310146200025e57565b634e487b7160e01b600052602260045260246000fd5b91607f169162000252565b601f81116200028c575050565b60009081805260208220906020601f850160051c83019410620002cc575b601f0160051c01915b828110620002c057505050565b818155600101620002b3565b9092508290620002aa565b90601f8211620002e5575050565b60019160009083825260208220906020601f850160051c8301941062000328575b601f0160051c01915b8281106200031d5750505050565b81815583016200030f565b909250829062000306565b80519091906001600160401b03811162000425575b60019062000362816200035c845462000242565b620002d7565b602080601f8311600114620003a057508192939460009262000394575b5050600019600383901b1c191690821b179055565b0151905038806200037f565b6001600052601f198316959091907fb10e2d527612073b26eecdfd717e6a320cf44b4afac2b0732d9fcbe2b7fa0cf6926000905b8882106200040d5750508385969710620003f3575b505050811b019055565b015160001960f88460031b161c19169055388080620003e9565b808785968294968601518155019501930190620003d4565b6200042f620001b2565b62000348565b604051600090815490620004498262000242565b928382526020938483019360019081811690816000146200054e57506001146200050e575b50509181620004886200050893620004f9950382620001f4565b519020604080517f8b73c3c69bb8fe3d512ecc4cf759cc79239f7b179b0ffacaa9a75d522b39400f95810195865260208601929092527fc89efdaa54c0f20c7adf612882df0950f5a951637e0307cdcb4c672f298b8bc69085015246606085015230608085015291829060a0850190565b03601f198101835282620001f4565b51902090565b908592506000805282600020916000925b828410620005385750505082010181620004886200046e565b805486850186015287949093019281016200051f565b60ff1916865250505060408201905081620004886200046e56fe60806040526004361015610013575b600080fd5b60003560e01c806306fdde0314610167578063095ea7b31461015e57806318160ddd146101555780631b2438451461014c57806323b872dd14610143578063303bdd2c1461013a578063313ce567146101315780633644e5151461012857806340c10f191461011f57806370a08231146101165780637ecebe001461010d57806395d89b4114610104578063a9059cbb146100fb578063cd1b5b71146100f2578063d505accf146100e9578063dd62ed3e146100e05763e074d6a9146100d857600080fd5b61000e610b72565b5061000e610afa565b5061000e610873565b5061000e610829565b5061000e610765565b5061000e6106bf565b5061000e610677565b5061000e61062f565b5061000e610594565b5061000e610570565b5061000e610531565b5061000e61050d565b5061000e6104d3565b5061000e6104ac565b5061000e61048d565b5061000e6103e8565b5061000e6102a9565b90600182811c921680156101b9575b602083101461018a57565b7f4e487b7100000000000000000000000000000000000000000000000000000000600052602260045260246000fd5b91607f169161017f565b90601f7fffffffffffffffffffffffffffffffffffffffffffffffffffffffffffffffe0910116810190811067ffffffffffffffff82111761020457604052565b7f4e487b7100000000000000000000000000000000000000000000000000000000600052604160045260246000fd5b919091602080825283519081818401526000945b828610610293575050601f817fffffffffffffffffffffffffffffffffffffffffffffffffffffffffffffffe0926040959611610286575b0116010190565b600085828601015261027f565b8581018201518487016040015294810194610247565b503461000e5760008060031936011261039f57604051908080546102cc81610170565b808552916001918083169081156103605750600114610306575b610302856102f6818703826101c3565b60405191829182610233565b0390f35b80809450527f290decd9548b62a8d60345a988386fc84ba6bc95484008f6362f93160ef3e5635b8284106103485750505081016020016102f6826103026102e6565b8054602085870181019190915290930192810161032d565b7fffffffffffffffffffffffffffffffffffffffffffffffffffffffffffffff0016602087015250506040840192506102f691508390506103026102e6565b80fd5b6004359073ffffffffffffffffffffffffffffffffffffffff8216820361000e57565b6024359073ffffffffffffffffffffffffffffffffffffffff8216820361000e57565b503461000e57604060031936011261000e576104026103a2565b73ffffffffffffffffffffffffffffffffffffffff60243591336000526004602052826104538260406000209073ffffffffffffffffffffffffffffffffffffffff16600052602052604060002090565b5560405192835216907f8c5be1e5ebec7d5bd14f71427d1e84f3dd0314c0f7b2291e5b200ac8c7c3b92560203392a3602060405160018152f35b503461000e57600060031936011261000e576020600254604051908152f35b503461000e57600060031936011261000e57602060ff60065460081c166040519015158152f35b503461000e57606060031936011261000e5760206105036104f26103a2565b6104fa6103c5565b60443591610ea1565b6040519015158152f35b503461000e57600060031936011261000e57602060ff600654166040519015158152f35b503461000e57600060031936011261000e57602060405160ff7f0000000000000000000000000000000000000000000000000000000000000000168152f35b503461000e57600060031936011261000e57602061058c610cd5565b604051908152f35b503461000e57604060031936011261000e576105ae6103a2565b60007fddf252ad1be2c89b69c2b068fc378daa952ba7f163c4a11628f55a4df523b3ef602073ffffffffffffffffffffffffffffffffffffffff602435948560025481198111610622575b0160025516938484526003825260408420818154019055604051908152a3602060405160018152f35b61062a610bb7565b6105f9565b503461000e57602060031936011261000e5773ffffffffffffffffffffffffffffffffffffffff61065e6103a2565b1660005260036020526020604060002054604051908152f35b503461000e57602060031936011261000e5773ffffffffffffffffffffffffffffffffffffffff6106a66103a2565b1660005260056020526020604060002054604051908152f35b503461000e5760008060031936011261039f57604051908060018054916106e583610170565b80865292828116908115610360575060011461070b57610302856102f6818703826101c3565b92508083527fb10e2d527612073b26eecdfd717e6a320cf44b4afac2b0732d9fcbe2b7fa0cf65b82841061074d5750505081016020016102f6826103026102e6565b80546020858701810191909152909301928101610732565b503461000e57604060031936011261000e5761077f6103a2565b73ffffffffffffffffffffffffffffffffffffffff602435913360005260036020526040600020838154818110610801575b039055169081600052600360205260406000208181540190556040519081527fddf252ad1be2c89b69c2b068fc378daa952ba7f163c4a11628f55a4df523b3ef60203392a3602060405160018152f35b610809610bb7565b6107b1565b600319602091011261000e57600435801515810361000e5790565b503461000e576108383661080e565b15157fffffffffffffffffffffffffffffffffffffffffffffffffffffffffffff00ff61ff006006549260081b169116176006556000604051f35b503461000e5760e060031936011261000e5761088d6103a2565b6108956103c5565b604435906064359060843560ff8116810361000e5760006020917f8c5be1e5ebec7d5bd14f71427d1e84f3dd0314c0f7b2291e5b200ac8c7c3b925946108dd42821015610bfe565b610a09610a156108eb610cd5565b928a8a61099361091b8373ffffffffffffffffffffffffffffffffffffffff166000526005602052604060002090565b938454946001860190556040519485938d8d8601968791959493909260a09360c08401977f6e71edae12b1b97f4d1f60370fef10105fa2faae0126114a169c64845d6126c9855273ffffffffffffffffffffffffffffffffffffffff8092166020860152166040840152606083015260808201520152565b03916109c57fffffffffffffffffffffffffffffffffffffffffffffffffffffffffffffffe0938481018352826101c3565b519020604051938491898301968790916042927f19010000000000000000000000000000000000000000000000000000000000008352600283015260228201520190565b039081018352826101c3565b5190206040805191825260ff92909216602082015260a4359181019190915260c435606082015281805260809060015afa15610aed575b6000519083610acf82610aaa73ffffffffffffffffffffffffffffffffffffffff95610a848782168015159081610ae1575b50610c70565b73ffffffffffffffffffffffffffffffffffffffff166000526004602052604060002090565b9073ffffffffffffffffffffffffffffffffffffffff16600052602052604060002090565b556040519384528116931691602090a3005b9050888c161438610a7e565b610af5610c63565b610a4c565b503461000e57604060031936011261000e576020610b69610b196103a2565b73ffffffffffffffffffffffffffffffffffffffff610b366103c5565b91166000526004835260406000209073ffffffffffffffffffffffffffffffffffffffff16600052602052604060002090565b54604051908152f35b503461000e57610b813661080e565b151560ff7fffffffffffffffffffffffffffffffffffffffffffffffffffffffffffffff00600654169116176006556000604051f35b507f4e487b7100000000000000000000000000000000000000000000000000000000600052601160045260246000fd5b818110610bf2570390565b610bfa610bb7565b0390565b15610c0557565b60646040517f08c379a000000000000000000000000000000000000000000000000000000000815260206004820152601760248201527f5045524d49545f444541444c494e455f455850495245440000000000000000006044820152fd5b506040513d6000823e3d90fd5b15610c7757565b60646040517f08c379a000000000000000000000000000000000000000000000000000000000815260206004820152600e60248201527f494e56414c49445f5349474e45520000000000000000000000000000000000006044820152fd5b6000467f000000000000000000000000000000000000000000000000000000000000000003610d2357507f000000000000000000000000000000000000000000000000000000000000000090565b6040518154919081610d3484610170565b80835260209485840194600191828116908115610e665750600114610e0e575b5050509181610d6b610e0893610ddc9503826101c3565b519020604080517f8b73c3c69bb8fe3d512ecc4cf759cc79239f7b179b0ffacaa9a75d522b39400f95810195865260208601929092527fc89efdaa54c0f20c7adf612882df0950f5a951637e0307cdcb4c672f298b8bc69085015246606085015230608085015291829060a0850190565b037fffffffffffffffffffffffffffffffffffffffffffffffffffffffffffffffe081018352826101c3565b51902090565b91908693508280527f290decd9548b62a8d60345a988386fc84ba6bc95484008f6362f93160ef3e5635b828410610e515750505082010181610d6b610e08610d54565b80548685018601528794909301928101610e38565b7fffffffffffffffffffffffffffffffffffffffffffffffffffffffffffffff00168752505050604083019150829050610d6b610e08610d54565b9060ff6006541661101c577fddf252ad1be2c89b69c2b068fc378daa952ba7f163c4a11628f55a4df523b3ef9073ffffffffffffffffffffffffffffffffffffffff90610f738285169485600052600460205286610f2260406000203373ffffffffffffffffffffffffffffffffffffffff16600052602052604060002090565b547fffffffffffffffffffffffffffffffffffffffffffffffffffffffffffffffff8103610fd0575b505073ffffffffffffffffffffffffffffffffffffffff166000526003602052604060002090565b610f7e868254610be7565b9055610faa8173ffffffffffffffffffffffffffffffffffffffff166000526003602052604060002090565b8054860190556040519485521692602090a360065460081c60ff16610fce57600190565b005b81811061100f575b0361100733610aaa8473ffffffffffffffffffffffffffffffffffffffff166000526004602052604060002090565b558638610f4b565b611017610bb7565b610fd8565b50505060009056fea26469706673582212204a19f8d9c4826a737e0977a99c3bceb2f23ff1b3dedee57bd8b2a9b3bacf362c64736f6c634300080e0033",
          "opcodes": "PUSH1 0xE0 PUSH1 0x40 MSTORE CALLVALUE PUSH3 0x1AD JUMPI PUSH3 0x14 PUSH3 0x218 JUMP JUMPDEST PUSH1 0x20 PUSH6 0x54657374323 PUSH1 0xD4 SHL DUP2 DUP4 ADD MSTORE PUSH3 0x2E PUSH3 0x22D JUMP JUMPDEST PUSH5 0x545354323 PUSH1 0xDC SHL DUP3 DUP3 ADD MSTORE DUP3 MLOAD SWAP1 SWAP2 SWAP1 PUSH1 0x1 PUSH1 0x1 PUSH1 0x40 SHL SUB DUP2 GT PUSH3 0x19D JUMPI JUMPDEST PUSH1 0x0 SWAP2 PUSH3 0x6A DUP3 PUSH3 0x64 DUP6 SLOAD PUSH3 0x242 JUMP JUMPDEST PUSH3 0x27F JUMP JUMPDEST DUP1 PUSH1 0x1F DUP4 GT PUSH1 0x1 EQ PUSH3 0x10F JUMPI POP DUP2 SWAP1 PUSH3 0xA1 SWAP6 DUP5 SWAP3 PUSH3 0x103 JUMPI JUMPDEST POP POP DUP2 PUSH1 0x1 SHL SWAP2 PUSH1 0x0 NOT SWAP1 PUSH1 0x3 SHL SHR NOT AND OR SWAP1 SSTORE PUSH3 0x333 JUMP JUMPDEST PUSH1 0x12 PUSH1 0x80 MSTORE CHAINID PUSH1 0xA0 MSTORE PUSH3 0xB4 PUSH3 0x435 JUMP JUMPDEST PUSH1 0xC0 MSTORE PUSH3 0xC7 PUSH1 0xFF NOT PUSH1 0x6 SLOAD AND PUSH1 0x6 SSTORE JUMP JUMPDEST PUSH3 0xD8 PUSH2 0xFF00 NOT PUSH1 0x6 SLOAD AND PUSH1 0x6 SSTORE JUMP JUMPDEST PUSH1 0x40 MLOAD PUSH2 0x105A SWAP1 DUP2 PUSH3 0x569 DUP3 CODECOPY PUSH1 0x80 MLOAD DUP2 PUSH2 0x54C ADD MSTORE PUSH1 0xA0 MLOAD DUP2 PUSH2 0xCDA ADD MSTORE PUSH1 0xC0 MLOAD DUP2 PUSH2 0xD01 ADD MSTORE RETURN JUMPDEST ADD MLOAD SWAP1 POP CODESIZE DUP1 PUSH3 0x87 JUMP JUMPDEST PUSH1 0x0 DUP1 MSTORE SWAP2 SWAP5 PUSH1 0x1F NOT DUP7 AND PUSH32 0x290DECD9548B62A8D60345A988386FC84BA6BC95484008F6362F93160EF3E563 SWAP4 DUP6 SWAP1 JUMPDEST DUP3 DUP3 LT PUSH3 0x184 JUMPI POP POP SWAP2 PUSH1 0x1 SWAP4 SWAP2 DUP8 PUSH3 0xA1 SWAP9 SWAP5 LT PUSH3 0x16A JUMPI JUMPDEST POP POP POP DUP2 SHL ADD SWAP1 SSTORE PUSH3 0x333 JUMP JUMPDEST ADD MLOAD PUSH1 0x0 NOT PUSH1 0xF8 DUP5 PUSH1 0x3 SHL AND SHR NOT AND SWAP1 SSTORE CODESIZE DUP1 DUP1 PUSH3 0x15C JUMP JUMPDEST DUP1 PUSH1 0x1 DUP7 SWAP8 DUP3 SWAP5 SWAP8 DUP8 ADD MLOAD DUP2 SSTORE ADD SWAP7 ADD SWAP5 ADD SWAP1 PUSH3 0x13F JUMP JUMPDEST PUSH3 0x1A7 PUSH3 0x1B2 JUMP JUMPDEST PUSH3 0x50 JUMP JUMPDEST PUSH1 0x0 DUP1 REVERT JUMPDEST POP PUSH4 0x4E487B71 PUSH1 0xE0 SHL PUSH1 0x0 MSTORE PUSH1 0x41 PUSH1 0x4 MSTORE PUSH1 0x24 PUSH1 0x0 REVERT JUMPDEST PUSH1 0x40 DUP2 ADD SWAP1 DUP2 LT PUSH1 0x1 PUSH1 0x1 PUSH1 0x40 SHL SUB DUP3 GT OR PUSH3 0x1E5 JUMPI PUSH1 0x40 MSTORE JUMP JUMPDEST PUSH3 0x1EF PUSH3 0x1B2 JUMP JUMPDEST PUSH1 0x40 MSTORE JUMP JUMPDEST PUSH1 0x1F SWAP1 SWAP2 ADD PUSH1 0x1F NOT AND DUP2 ADD SWAP1 PUSH1 0x1 PUSH1 0x1 PUSH1 0x40 SHL SUB DUP3 GT SWAP1 DUP3 LT OR PUSH3 0x1E5 JUMPI PUSH1 0x40 MSTORE JUMP JUMPDEST PUSH1 0x40 MLOAD SWAP1 PUSH3 0x227 DUP3 PUSH3 0x1C9 JUMP JUMPDEST PUSH1 0x6 DUP3 MSTORE JUMP JUMPDEST PUSH1 0x40 MLOAD SWAP1 PUSH3 0x23C DUP3 PUSH3 0x1C9 JUMP JUMPDEST PUSH1 0x5 DUP3 MSTORE JUMP JUMPDEST SWAP1 PUSH1 0x1 DUP3 DUP2 SHR SWAP3 AND DUP1 ISZERO PUSH3 0x274 JUMPI JUMPDEST PUSH1 0x20 DUP4 LT EQ PUSH3 0x25E JUMPI JUMP JUMPDEST PUSH4 0x4E487B71 PUSH1 0xE0 SHL PUSH1 0x0 MSTORE PUSH1 0x22 PUSH1 0x4 MSTORE PUSH1 0x24 PUSH1 0x0 REVERT JUMPDEST SWAP2 PUSH1 0x7F AND SWAP2 PUSH3 0x252 JUMP JUMPDEST PUSH1 0x1F DUP2 GT PUSH3 0x28C JUMPI POP POP JUMP JUMPDEST PUSH1 0x0 SWAP1 DUP2 DUP1 MSTORE PUSH1 0x20 DUP3 KECCAK256 SWAP1 PUSH1 0x20 PUSH1 0x1F DUP6 ADD PUSH1 0x5 SHR DUP4 ADD SWAP5 LT PUSH3 0x2CC JUMPI JUMPDEST PUSH1 0x1F ADD PUSH1 0x5 SHR ADD SWAP2 JUMPDEST DUP3 DUP2 LT PUSH3 0x2C0 JUMPI POP POP POP JUMP JUMPDEST DUP2 DUP2 SSTORE PUSH1 0x1 ADD PUSH3 0x2B3 JUMP JUMPDEST SWAP1 SWAP3 POP DUP3 SWAP1 PUSH3 0x2AA JUMP JUMPDEST SWAP1 PUSH1 0x1F DUP3 GT PUSH3 0x2E5 JUMPI POP POP JUMP JUMPDEST PUSH1 0x1 SWAP2 PUSH1 0x0 SWAP1 DUP4 DUP3 MSTORE PUSH1 0x20 DUP3 KECCAK256 SWAP1 PUSH1 0x20 PUSH1 0x1F DUP6 ADD PUSH1 0x5 SHR DUP4 ADD SWAP5 LT PUSH3 0x328 JUMPI JUMPDEST PUSH1 0x1F ADD PUSH1 0x5 SHR ADD SWAP2 JUMPDEST DUP3 DUP2 LT PUSH3 0x31D JUMPI POP POP POP POP JUMP JUMPDEST DUP2 DUP2 SSTORE DUP4 ADD PUSH3 0x30F JUMP JUMPDEST SWAP1 SWAP3 POP DUP3 SWAP1 PUSH3 0x306 JUMP JUMPDEST DUP1 MLOAD SWAP1 SWAP2 SWAP1 PUSH1 0x1 PUSH1 0x1 PUSH1 0x40 SHL SUB DUP2 GT PUSH3 0x425 JUMPI JUMPDEST PUSH1 0x1 SWAP1 PUSH3 0x362 DUP2 PUSH3 0x35C DUP5 SLOAD PUSH3 0x242 JUMP JUMPDEST PUSH3 0x2D7 JUMP JUMPDEST PUSH1 0x20 DUP1 PUSH1 0x1F DUP4 GT PUSH1 0x1 EQ PUSH3 0x3A0 JUMPI POP DUP2 SWAP3 SWAP4 SWAP5 PUSH1 0x0 SWAP3 PUSH3 0x394 JUMPI JUMPDEST POP POP PUSH1 0x0 NOT PUSH1 0x3 DUP4 SWAP1 SHL SHR NOT AND SWAP1 DUP3 SHL OR SWAP1 SSTORE JUMP JUMPDEST ADD MLOAD SWAP1 POP CODESIZE DUP1 PUSH3 0x37F JUMP JUMPDEST PUSH1 0x1 PUSH1 0x0 MSTORE PUSH1 0x1F NOT DUP4 AND SWAP6 SWAP1 SWAP2 SWAP1 PUSH32 0xB10E2D527612073B26EECDFD717E6A320CF44B4AFAC2B0732D9FCBE2B7FA0CF6 SWAP3 PUSH1 0x0 SWAP1 JUMPDEST DUP9 DUP3 LT PUSH3 0x40D JUMPI POP POP DUP4 DUP6 SWAP7 SWAP8 LT PUSH3 0x3F3 JUMPI JUMPDEST POP POP POP DUP2 SHL ADD SWAP1 SSTORE JUMP JUMPDEST ADD MLOAD PUSH1 0x0 NOT PUSH1 0xF8 DUP5 PUSH1 0x3 SHL AND SHR NOT AND SWAP1 SSTORE CODESIZE DUP1 DUP1 PUSH3 0x3E9 JUMP JUMPDEST DUP1 DUP8 DUP6 SWAP7 DUP3 SWAP5 SWAP7 DUP7 ADD MLOAD DUP2 SSTORE ADD SWAP6 ADD SWAP4 ADD SWAP1 PUSH3 0x3D4 JUMP JUMPDEST PUSH3 0x42F PUSH3 0x1B2 JUMP JUMPDEST PUSH3 0x348 JUMP JUMPDEST PUSH1 0x40 MLOAD PUSH1 0x0 SWAP1 DUP2 SLOAD SWAP1 PUSH3 0x449 DUP3 PUSH3 0x242 JUMP JUMPDEST SWAP3 DUP4 DUP3 MSTORE PUSH1 0x20 SWAP4 DUP5 DUP4 ADD SWAP4 PUSH1 0x1 SWAP1 DUP2 DUP2 AND SWAP1 DUP2 PUSH1 0x0 EQ PUSH3 0x54E JUMPI POP PUSH1 0x1 EQ PUSH3 0x50E JUMPI JUMPDEST POP POP SWAP2 DUP2 PUSH3 0x488 PUSH3 0x508 SWAP4 PUSH3 0x4F9 SWAP6 SUB DUP3 PUSH3 0x1F4 JUMP JUMPDEST MLOAD SWAP1 KECCAK256 PUSH1 0x40 DUP1 MLOAD PUSH32 0x8B73C3C69BB8FE3D512ECC4CF759CC79239F7B179B0FFACAA9A75D522B39400F SWAP6 DUP2 ADD SWAP6 DUP7 MSTORE PUSH1 0x20 DUP7 ADD SWAP3 SWAP1 SWAP3 MSTORE PUSH32 0xC89EFDAA54C0F20C7ADF612882DF0950F5A951637E0307CDCB4C672F298B8BC6 SWAP1 DUP6 ADD MSTORE CHAINID PUSH1 0x60 DUP6 ADD MSTORE ADDRESS PUSH1 0x80 DUP6 ADD MSTORE SWAP2 DUP3 SWAP1 PUSH1 0xA0 DUP6 ADD SWAP1 JUMP JUMPDEST SUB PUSH1 0x1F NOT DUP2 ADD DUP4 MSTORE DUP3 PUSH3 0x1F4 JUMP JUMPDEST MLOAD SWAP1 KECCAK256 SWAP1 JUMP JUMPDEST SWAP1 DUP6 SWAP3 POP PUSH1 0x0 DUP1 MSTORE DUP3 PUSH1 0x0 KECCAK256 SWAP2 PUSH1 0x0 SWAP3 JUMPDEST DUP3 DUP5 LT PUSH3 0x538 JUMPI POP POP POP DUP3 ADD ADD DUP2 PUSH3 0x488 PUSH3 0x46E JUMP JUMPDEST DUP1 SLOAD DUP7 DUP6 ADD DUP7 ADD MSTORE DUP8 SWAP5 SWAP1 SWAP4 ADD SWAP3 DUP2 ADD PUSH3 0x51F JUMP JUMPDEST PUSH1 0xFF NOT AND DUP7 MSTORE POP POP POP PUSH1 0x40 DUP3 ADD SWAP1 POP DUP2 PUSH3 0x488 PUSH3 0x46E JUMP INVALID PUSH1 0x80 PUSH1 0x40 MSTORE PUSH1 0x4 CALLDATASIZE LT ISZERO PUSH2 0x13 JUMPI JUMPDEST PUSH1 0x0 DUP1 REVERT JUMPDEST PUSH1 0x0 CALLDATALOAD PUSH1 0xE0 SHR DUP1 PUSH4 0x6FDDE03 EQ PUSH2 0x167 JUMPI DUP1 PUSH4 0x95EA7B3 EQ PUSH2 0x15E JUMPI DUP1 PUSH4 0x18160DDD EQ PUSH2 0x155 JUMPI DUP1 PUSH4 0x1B243845 EQ PUSH2 0x14C JUMPI DUP1 PUSH4 0x23B872DD EQ PUSH2 0x143 JUMPI DUP1 PUSH4 0x303BDD2C EQ PUSH2 0x13A JUMPI DUP1 PUSH4 0x313CE567 EQ PUSH2 0x131 JUMPI DUP1 PUSH4 0x3644E515 EQ PUSH2 0x128 JUMPI DUP1 PUSH4 0x40C10F19 EQ PUSH2 0x11F JUMPI DUP1 PUSH4 0x70A08231 EQ PUSH2 0x116 JUMPI DUP1 PUSH4 0x7ECEBE00 EQ PUSH2 0x10D JUMPI DUP1 PUSH4 0x95D89B41 EQ PUSH2 0x104 JUMPI DUP1 PUSH4 0xA9059CBB EQ PUSH2 0xFB JUMPI DUP1 PUSH4 0xCD1B5B71 EQ PUSH2 0xF2 JUMPI DUP1 PUSH4 0xD505ACCF EQ PUSH2 0xE9 JUMPI DUP1 PUSH4 0xDD62ED3E EQ PUSH2 0xE0 JUMPI PUSH4 0xE074D6A9 EQ PUSH2 0xD8 JUMPI PUSH1 0x0 DUP1 REVERT JUMPDEST PUSH2 0xE PUSH2 0xB72 JUMP JUMPDEST POP PUSH2 0xE PUSH2 0xAFA JUMP JUMPDEST POP PUSH2 0xE PUSH2 0x873 JUMP JUMPDEST POP PUSH2 0xE PUSH2 0x829 JUMP JUMPDEST POP PUSH2 0xE PUSH2 0x765 JUMP JUMPDEST POP PUSH2 0xE PUSH2 0x6BF JUMP JUMPDEST POP PUSH2 0xE PUSH2 0x677 JUMP JUMPDEST POP PUSH2 0xE PUSH2 0x62F JUMP JUMPDEST POP PUSH2 0xE PUSH2 0x594 JUMP JUMPDEST POP PUSH2 0xE PUSH2 0x570 JUMP JUMPDEST POP PUSH2 0xE PUSH2 0x531 JUMP JUMPDEST POP PUSH2 0xE PUSH2 0x50D JUMP JUMPDEST POP PUSH2 0xE PUSH2 0x4D3 JUMP JUMPDEST POP PUSH2 0xE PUSH2 0x4AC JUMP JUMPDEST POP PUSH2 0xE PUSH2 0x48D JUMP JUMPDEST POP PUSH2 0xE PUSH2 0x3E8 JUMP JUMPDEST POP PUSH2 0xE PUSH2 0x2A9 JUMP JUMPDEST SWAP1 PUSH1 0x1 DUP3 DUP2 SHR SWAP3 AND DUP1 ISZERO PUSH2 0x1B9 JUMPI JUMPDEST PUSH1 0x20 DUP4 LT EQ PUSH2 0x18A JUMPI JUMP JUMPDEST PUSH32 0x4E487B7100000000000000000000000000000000000000000000000000000000 PUSH1 0x0 MSTORE PUSH1 0x22 PUSH1 0x4 MSTORE PUSH1 0x24 PUSH1 0x0 REVERT JUMPDEST SWAP2 PUSH1 0x7F AND SWAP2 PUSH2 0x17F JUMP JUMPDEST SWAP1 PUSH1 0x1F PUSH32 0xFFFFFFFFFFFFFFFFFFFFFFFFFFFFFFFFFFFFFFFFFFFFFFFFFFFFFFFFFFFFFFE0 SWAP2 ADD AND DUP2 ADD SWAP1 DUP2 LT PUSH8 0xFFFFFFFFFFFFFFFF DUP3 GT OR PUSH2 0x204 JUMPI PUSH1 0x40 MSTORE JUMP JUMPDEST PUSH32 0x4E487B7100000000000000000000000000000000000000000000000000000000 PUSH1 0x0 MSTORE PUSH1 0x41 PUSH1 0x4 MSTORE PUSH1 0x24 PUSH1 0x0 REVERT JUMPDEST SWAP2 SWAP1 SWAP2 PUSH1 0x20 DUP1 DUP3 MSTORE DUP4 MLOAD SWAP1 DUP2 DUP2 DUP5 ADD MSTORE PUSH1 0x0 SWAP5 JUMPDEST DUP3 DUP7 LT PUSH2 0x293 JUMPI POP POP PUSH1 0x1F DUP2 PUSH32 0xFFFFFFFFFFFFFFFFFFFFFFFFFFFFFFFFFFFFFFFFFFFFFFFFFFFFFFFFFFFFFFE0 SWAP3 PUSH1 0x40 SWAP6 SWAP7 GT PUSH2 0x286 JUMPI JUMPDEST ADD AND ADD ADD SWAP1 JUMP JUMPDEST PUSH1 0x0 DUP6 DUP3 DUP7 ADD ADD MSTORE PUSH2 0x27F JUMP JUMPDEST DUP6 DUP2 ADD DUP3 ADD MLOAD DUP5 DUP8 ADD PUSH1 0x40 ADD MSTORE SWAP5 DUP2 ADD SWAP5 PUSH2 0x247 JUMP JUMPDEST POP CALLVALUE PUSH2 0xE JUMPI PUSH1 0x0 DUP1 PUSH1 0x3 NOT CALLDATASIZE ADD SLT PUSH2 0x39F JUMPI PUSH1 0x40 MLOAD SWAP1 DUP1 DUP1 SLOAD PUSH2 0x2CC DUP2 PUSH2 0x170 JUMP JUMPDEST DUP1 DUP6 MSTORE SWAP2 PUSH1 0x1 SWAP2 DUP1 DUP4 AND SWAP1 DUP2 ISZERO PUSH2 0x360 JUMPI POP PUSH1 0x1 EQ PUSH2 0x306 JUMPI JUMPDEST PUSH2 0x302 DUP6 PUSH2 0x2F6 DUP2 DUP8 SUB DUP3 PUSH2 0x1C3 JUMP JUMPDEST PUSH1 0x40 MLOAD SWAP2 DUP3 SWAP2 DUP3 PUSH2 0x233 JUMP JUMPDEST SUB SWAP1 RETURN JUMPDEST DUP1 DUP1 SWAP5 POP MSTORE PUSH32 0x290DECD9548B62A8D60345A988386FC84BA6BC95484008F6362F93160EF3E563 JUMPDEST DUP3 DUP5 LT PUSH2 0x348 JUMPI POP POP POP DUP2 ADD PUSH1 0x20 ADD PUSH2 0x2F6 DUP3 PUSH2 0x302 PUSH2 0x2E6 JUMP JUMPDEST DUP1 SLOAD PUSH1 0x20 DUP6 DUP8 ADD DUP2 ADD SWAP2 SWAP1 SWAP2 MSTORE SWAP1 SWAP4 ADD SWAP3 DUP2 ADD PUSH2 0x32D JUMP JUMPDEST PUSH32 0xFFFFFFFFFFFFFFFFFFFFFFFFFFFFFFFFFFFFFFFFFFFFFFFFFFFFFFFFFFFFFF00 AND PUSH1 0x20 DUP8 ADD MSTORE POP POP PUSH1 0x40 DUP5 ADD SWAP3 POP PUSH2 0x2F6 SWAP2 POP DUP4 SWAP1 POP PUSH2 0x302 PUSH2 0x2E6 JUMP JUMPDEST DUP1 REVERT JUMPDEST PUSH1 0x4 CALLDATALOAD SWAP1 PUSH20 0xFFFFFFFFFFFFFFFFFFFFFFFFFFFFFFFFFFFFFFFF DUP3 AND DUP3 SUB PUSH2 0xE JUMPI JUMP JUMPDEST PUSH1 0x24 CALLDATALOAD SWAP1 PUSH20 0xFFFFFFFFFFFFFFFFFFFFFFFFFFFFFFFFFFFFFFFF DUP3 AND DUP3 SUB PUSH2 0xE JUMPI JUMP JUMPDEST POP CALLVALUE PUSH2 0xE JUMPI PUSH1 0x40 PUSH1 0x3 NOT CALLDATASIZE ADD SLT PUSH2 0xE JUMPI PUSH2 0x402 PUSH2 0x3A2 JUMP JUMPDEST PUSH20 0xFFFFFFFFFFFFFFFFFFFFFFFFFFFFFFFFFFFFFFFF PUSH1 0x24 CALLDATALOAD SWAP2 CALLER PUSH1 0x0 MSTORE PUSH1 0x4 PUSH1 0x20 MSTORE DUP3 PUSH2 0x453 DUP3 PUSH1 0x40 PUSH1 0x0 KECCAK256 SWAP1 PUSH20 0xFFFFFFFFFFFFFFFFFFFFFFFFFFFFFFFFFFFFFFFF AND PUSH1 0x0 MSTORE PUSH1 0x20 MSTORE PUSH1 0x40 PUSH1 0x0 KECCAK256 SWAP1 JUMP JUMPDEST SSTORE PUSH1 0x40 MLOAD SWAP3 DUP4 MSTORE AND SWAP1 PUSH32 0x8C5BE1E5EBEC7D5BD14F71427D1E84F3DD0314C0F7B2291E5B200AC8C7C3B925 PUSH1 0x20 CALLER SWAP3 LOG3 PUSH1 0x20 PUSH1 0x40 MLOAD PUSH1 0x1 DUP2 MSTORE RETURN JUMPDEST POP CALLVALUE PUSH2 0xE JUMPI PUSH1 0x0 PUSH1 0x3 NOT CALLDATASIZE ADD SLT PUSH2 0xE JUMPI PUSH1 0x20 PUSH1 0x2 SLOAD PUSH1 0x40 MLOAD SWAP1 DUP2 MSTORE RETURN JUMPDEST POP CALLVALUE PUSH2 0xE JUMPI PUSH1 0x0 PUSH1 0x3 NOT CALLDATASIZE ADD SLT PUSH2 0xE JUMPI PUSH1 0x20 PUSH1 0xFF PUSH1 0x6 SLOAD PUSH1 0x8 SHR AND PUSH1 0x40 MLOAD SWAP1 ISZERO ISZERO DUP2 MSTORE RETURN JUMPDEST POP CALLVALUE PUSH2 0xE JUMPI PUSH1 0x60 PUSH1 0x3 NOT CALLDATASIZE ADD SLT PUSH2 0xE JUMPI PUSH1 0x20 PUSH2 0x503 PUSH2 0x4F2 PUSH2 0x3A2 JUMP JUMPDEST PUSH2 0x4FA PUSH2 0x3C5 JUMP JUMPDEST PUSH1 0x44 CALLDATALOAD SWAP2 PUSH2 0xEA1 JUMP JUMPDEST PUSH1 0x40 MLOAD SWAP1 ISZERO ISZERO DUP2 MSTORE RETURN JUMPDEST POP CALLVALUE PUSH2 0xE JUMPI PUSH1 0x0 PUSH1 0x3 NOT CALLDATASIZE ADD SLT PUSH2 0xE JUMPI PUSH1 0x20 PUSH1 0xFF PUSH1 0x6 SLOAD AND PUSH1 0x40 MLOAD SWAP1 ISZERO ISZERO DUP2 MSTORE RETURN JUMPDEST POP CALLVALUE PUSH2 0xE JUMPI PUSH1 0x0 PUSH1 0x3 NOT CALLDATASIZE ADD SLT PUSH2 0xE JUMPI PUSH1 0x20 PUSH1 0x40 MLOAD PUSH1 0xFF PUSH32 0x0 AND DUP2 MSTORE RETURN JUMPDEST POP CALLVALUE PUSH2 0xE JUMPI PUSH1 0x0 PUSH1 0x3 NOT CALLDATASIZE ADD SLT PUSH2 0xE JUMPI PUSH1 0x20 PUSH2 0x58C PUSH2 0xCD5 JUMP JUMPDEST PUSH1 0x40 MLOAD SWAP1 DUP2 MSTORE RETURN JUMPDEST POP CALLVALUE PUSH2 0xE JUMPI PUSH1 0x40 PUSH1 0x3 NOT CALLDATASIZE ADD SLT PUSH2 0xE JUMPI PUSH2 0x5AE PUSH2 0x3A2 JUMP JUMPDEST PUSH1 0x0 PUSH32 0xDDF252AD1BE2C89B69C2B068FC378DAA952BA7F163C4A11628F55A4DF523B3EF PUSH1 0x20 PUSH20 0xFFFFFFFFFFFFFFFFFFFFFFFFFFFFFFFFFFFFFFFF PUSH1 0x24 CALLDATALOAD SWAP5 DUP6 PUSH1 0x2 SLOAD DUP2 NOT DUP2 GT PUSH2 0x622 JUMPI JUMPDEST ADD PUSH1 0x2 SSTORE AND SWAP4 DUP5 DUP5 MSTORE PUSH1 0x3 DUP3 MSTORE PUSH1 0x40 DUP5 KECCAK256 DUP2 DUP2 SLOAD ADD SWAP1 SSTORE PUSH1 0x40 MLOAD SWAP1 DUP2 MSTORE LOG3 PUSH1 0x20 PUSH1 0x40 MLOAD PUSH1 0x1 DUP2 MSTORE RETURN JUMPDEST PUSH2 0x62A PUSH2 0xBB7 JUMP JUMPDEST PUSH2 0x5F9 JUMP JUMPDEST POP CALLVALUE PUSH2 0xE JUMPI PUSH1 0x20 PUSH1 0x3 NOT CALLDATASIZE ADD SLT PUSH2 0xE JUMPI PUSH20 0xFFFFFFFFFFFFFFFFFFFFFFFFFFFFFFFFFFFFFFFF PUSH2 0x65E PUSH2 0x3A2 JUMP JUMPDEST AND PUSH1 0x0 MSTORE PUSH1 0x3 PUSH1 0x20 MSTORE PUSH1 0x20 PUSH1 0x40 PUSH1 0x0 KECCAK256 SLOAD PUSH1 0x40 MLOAD SWAP1 DUP2 MSTORE RETURN JUMPDEST POP CALLVALUE PUSH2 0xE JUMPI PUSH1 0x20 PUSH1 0x3 NOT CALLDATASIZE ADD SLT PUSH2 0xE JUMPI PUSH20 0xFFFFFFFFFFFFFFFFFFFFFFFFFFFFFFFFFFFFFFFF PUSH2 0x6A6 PUSH2 0x3A2 JUMP JUMPDEST AND PUSH1 0x0 MSTORE PUSH1 0x5 PUSH1 0x20 MSTORE PUSH1 0x20 PUSH1 0x40 PUSH1 0x0 KECCAK256 SLOAD PUSH1 0x40 MLOAD SWAP1 DUP2 MSTORE RETURN JUMPDEST POP CALLVALUE PUSH2 0xE JUMPI PUSH1 0x0 DUP1 PUSH1 0x3 NOT CALLDATASIZE ADD SLT PUSH2 0x39F JUMPI PUSH1 0x40 MLOAD SWAP1 DUP1 PUSH1 0x1 DUP1 SLOAD SWAP2 PUSH2 0x6E5 DUP4 PUSH2 0x170 JUMP JUMPDEST DUP1 DUP7 MSTORE SWAP3 DUP3 DUP2 AND SWAP1 DUP2 ISZERO PUSH2 0x360 JUMPI POP PUSH1 0x1 EQ PUSH2 0x70B JUMPI PUSH2 0x302 DUP6 PUSH2 0x2F6 DUP2 DUP8 SUB DUP3 PUSH2 0x1C3 JUMP JUMPDEST SWAP3 POP DUP1 DUP4 MSTORE PUSH32 0xB10E2D527612073B26EECDFD717E6A320CF44B4AFAC2B0732D9FCBE2B7FA0CF6 JUMPDEST DUP3 DUP5 LT PUSH2 0x74D JUMPI POP POP POP DUP2 ADD PUSH1 0x20 ADD PUSH2 0x2F6 DUP3 PUSH2 0x302 PUSH2 0x2E6 JUMP JUMPDEST DUP1 SLOAD PUSH1 0x20 DUP6 DUP8 ADD DUP2 ADD SWAP2 SWAP1 SWAP2 MSTORE SWAP1 SWAP4 ADD SWAP3 DUP2 ADD PUSH2 0x732 JUMP JUMPDEST POP CALLVALUE PUSH2 0xE JUMPI PUSH1 0x40 PUSH1 0x3 NOT CALLDATASIZE ADD SLT PUSH2 0xE JUMPI PUSH2 0x77F PUSH2 0x3A2 JUMP JUMPDEST PUSH20 0xFFFFFFFFFFFFFFFFFFFFFFFFFFFFFFFFFFFFFFFF PUSH1 0x24 CALLDATALOAD SWAP2 CALLER PUSH1 0x0 MSTORE PUSH1 0x3 PUSH1 0x20 MSTORE PUSH1 0x40 PUSH1 0x0 KECCAK256 DUP4 DUP2 SLOAD DUP2 DUP2 LT PUSH2 0x801 JUMPI JUMPDEST SUB SWAP1 SSTORE AND SWAP1 DUP2 PUSH1 0x0 MSTORE PUSH1 0x3 PUSH1 0x20 MSTORE PUSH1 0x40 PUSH1 0x0 KECCAK256 DUP2 DUP2 SLOAD ADD SWAP1 SSTORE PUSH1 0x40 MLOAD SWAP1 DUP2 MSTORE PUSH32 0xDDF252AD1BE2C89B69C2B068FC378DAA952BA7F163C4A11628F55A4DF523B3EF PUSH1 0x20 CALLER SWAP3 LOG3 PUSH1 0x20 PUSH1 0x40 MLOAD PUSH1 0x1 DUP2 MSTORE RETURN JUMPDEST PUSH2 0x809 PUSH2 0xBB7 JUMP JUMPDEST PUSH2 0x7B1 JUMP JUMPDEST PUSH1 0x3 NOT PUSH1 0x20 SWAP2 ADD SLT PUSH2 0xE JUMPI PUSH1 0x4 CALLDATALOAD DUP1 ISZERO ISZERO DUP2 SUB PUSH2 0xE JUMPI SWAP1 JUMP JUMPDEST POP CALLVALUE PUSH2 0xE JUMPI PUSH2 0x838 CALLDATASIZE PUSH2 0x80E JUMP JUMPDEST ISZERO ISZERO PUSH32 0xFFFFFFFFFFFFFFFFFFFFFFFFFFFFFFFFFFFFFFFFFFFFFFFFFFFFFFFFFFFF00FF PUSH2 0xFF00 PUSH1 0x6 SLOAD SWAP3 PUSH1 0x8 SHL AND SWAP2 AND OR PUSH1 0x6 SSTORE PUSH1 0x0 PUSH1 0x40 MLOAD RETURN JUMPDEST POP CALLVALUE PUSH2 0xE JUMPI PUSH1 0xE0 PUSH1 0x3 NOT CALLDATASIZE ADD SLT PUSH2 0xE JUMPI PUSH2 0x88D PUSH2 0x3A2 JUMP JUMPDEST PUSH2 0x895 PUSH2 0x3C5 JUMP JUMPDEST PUSH1 0x44 CALLDATALOAD SWAP1 PUSH1 0x64 CALLDATALOAD SWAP1 PUSH1 0x84 CALLDATALOAD PUSH1 0xFF DUP2 AND DUP2 SUB PUSH2 0xE JUMPI PUSH1 0x0 PUSH1 0x20 SWAP2 PUSH32 0x8C5BE1E5EBEC7D5BD14F71427D1E84F3DD0314C0F7B2291E5B200AC8C7C3B925 SWAP5 PUSH2 0x8DD TIMESTAMP DUP3 LT ISZERO PUSH2 0xBFE JUMP JUMPDEST PUSH2 0xA09 PUSH2 0xA15 PUSH2 0x8EB PUSH2 0xCD5 JUMP JUMPDEST SWAP3 DUP11 DUP11 PUSH2 0x993 PUSH2 0x91B DUP4 PUSH20 0xFFFFFFFFFFFFFFFFFFFFFFFFFFFFFFFFFFFFFFFF AND PUSH1 0x0 MSTORE PUSH1 0x5 PUSH1 0x20 MSTORE PUSH1 0x40 PUSH1 0x0 KECCAK256 SWAP1 JUMP JUMPDEST SWAP4 DUP5 SLOAD SWAP5 PUSH1 0x1 DUP7 ADD SWAP1 SSTORE PUSH1 0x40 MLOAD SWAP5 DUP6 SWAP4 DUP14 DUP14 DUP7 ADD SWAP7 DUP8 SWAP2 SWAP6 SWAP5 SWAP4 SWAP1 SWAP3 PUSH1 0xA0 SWAP4 PUSH1 0xC0 DUP5 ADD SWAP8 PUSH32 0x6E71EDAE12B1B97F4D1F60370FEF10105FA2FAAE0126114A169C64845D6126C9 DUP6 MSTORE PUSH20 0xFFFFFFFFFFFFFFFFFFFFFFFFFFFFFFFFFFFFFFFF DUP1 SWAP3 AND PUSH1 0x20 DUP7 ADD MSTORE AND PUSH1 0x40 DUP5 ADD MSTORE PUSH1 0x60 DUP4 ADD MSTORE PUSH1 0x80 DUP3 ADD MSTORE ADD MSTORE JUMP JUMPDEST SUB SWAP2 PUSH2 0x9C5 PUSH32 0xFFFFFFFFFFFFFFFFFFFFFFFFFFFFFFFFFFFFFFFFFFFFFFFFFFFFFFFFFFFFFFE0 SWAP4 DUP5 DUP2 ADD DUP4 MSTORE DUP3 PUSH2 0x1C3 JUMP JUMPDEST MLOAD SWAP1 KECCAK256 PUSH1 0x40 MLOAD SWAP4 DUP5 SWAP2 DUP10 DUP4 ADD SWAP7 DUP8 SWAP1 SWAP2 PUSH1 0x42 SWAP3 PUSH32 0x1901000000000000000000000000000000000000000000000000000000000000 DUP4 MSTORE PUSH1 0x2 DUP4 ADD MSTORE PUSH1 0x22 DUP3 ADD MSTORE ADD SWAP1 JUMP JUMPDEST SUB SWAP1 DUP2 ADD DUP4 MSTORE DUP3 PUSH2 0x1C3 JUMP JUMPDEST MLOAD SWAP1 KECCAK256 PUSH1 0x40 DUP1 MLOAD SWAP2 DUP3 MSTORE PUSH1 0xFF SWAP3 SWAP1 SWAP3 AND PUSH1 0x20 DUP3 ADD MSTORE PUSH1 0xA4 CALLDATALOAD SWAP2 DUP2 ADD SWAP2 SWAP1 SWAP2 MSTORE PUSH1 0xC4 CALLDATALOAD PUSH1 0x60 DUP3 ADD MSTORE DUP2 DUP1 MSTORE PUSH1 0x80 SWAP1 PUSH1 0x1 GAS STATICCALL ISZERO PUSH2 0xAED JUMPI JUMPDEST PUSH1 0x0 MLOAD SWAP1 DUP4 PUSH2 0xACF DUP3 PUSH2 0xAAA PUSH20 0xFFFFFFFFFFFFFFFFFFFFFFFFFFFFFFFFFFFFFFFF SWAP6 PUSH2 0xA84 DUP8 DUP3 AND DUP1 ISZERO ISZERO SWAP1 DUP2 PUSH2 0xAE1 JUMPI JUMPDEST POP PUSH2 0xC70 JUMP JUMPDEST PUSH20 0xFFFFFFFFFFFFFFFFFFFFFFFFFFFFFFFFFFFFFFFF AND PUSH1 0x0 MSTORE PUSH1 0x4 PUSH1 0x20 MSTORE PUSH1 0x40 PUSH1 0x0 KECCAK256 SWAP1 JUMP JUMPDEST SWAP1 PUSH20 0xFFFFFFFFFFFFFFFFFFFFFFFFFFFFFFFFFFFFFFFF AND PUSH1 0x0 MSTORE PUSH1 0x20 MSTORE PUSH1 0x40 PUSH1 0x0 KECCAK256 SWAP1 JUMP JUMPDEST SSTORE PUSH1 0x40 MLOAD SWAP4 DUP5 MSTORE DUP2 AND SWAP4 AND SWAP2 PUSH1 0x20 SWAP1 LOG3 STOP JUMPDEST SWAP1 POP DUP9 DUP13 AND EQ CODESIZE PUSH2 0xA7E JUMP JUMPDEST PUSH2 0xAF5 PUSH2 0xC63 JUMP JUMPDEST PUSH2 0xA4C JUMP JUMPDEST POP CALLVALUE PUSH2 0xE JUMPI PUSH1 0x40 PUSH1 0x3 NOT CALLDATASIZE ADD SLT PUSH2 0xE JUMPI PUSH1 0x20 PUSH2 0xB69 PUSH2 0xB19 PUSH2 0x3A2 JUMP JUMPDEST PUSH20 0xFFFFFFFFFFFFFFFFFFFFFFFFFFFFFFFFFFFFFFFF PUSH2 0xB36 PUSH2 0x3C5 JUMP JUMPDEST SWAP2 AND PUSH1 0x0 MSTORE PUSH1 0x4 DUP4 MSTORE PUSH1 0x40 PUSH1 0x0 KECCAK256 SWAP1 PUSH20 0xFFFFFFFFFFFFFFFFFFFFFFFFFFFFFFFFFFFFFFFF AND PUSH1 0x0 MSTORE PUSH1 0x20 MSTORE PUSH1 0x40 PUSH1 0x0 KECCAK256 SWAP1 JUMP JUMPDEST SLOAD PUSH1 0x40 MLOAD SWAP1 DUP2 MSTORE RETURN JUMPDEST POP CALLVALUE PUSH2 0xE JUMPI PUSH2 0xB81 CALLDATASIZE PUSH2 0x80E JUMP JUMPDEST ISZERO ISZERO PUSH1 0xFF PUSH32 0xFFFFFFFFFFFFFFFFFFFFFFFFFFFFFFFFFFFFFFFFFFFFFFFFFFFFFFFFFFFFFF00 PUSH1 0x6 SLOAD AND SWAP2 AND OR PUSH1 0x6 SSTORE PUSH1 0x0 PUSH1 0x40 MLOAD RETURN JUMPDEST POP PUSH32 0x4E487B7100000000000000000000000000000000000000000000000000000000 PUSH1 0x0 MSTORE PUSH1 0x11 PUSH1 0x4 MSTORE PUSH1 0x24 PUSH1 0x0 REVERT JUMPDEST DUP2 DUP2 LT PUSH2 0xBF2 JUMPI SUB SWAP1 JUMP JUMPDEST PUSH2 0xBFA PUSH2 0xBB7 JUMP JUMPDEST SUB SWAP1 JUMP JUMPDEST ISZERO PUSH2 0xC05 JUMPI JUMP JUMPDEST PUSH1 0x64 PUSH1 0x40 MLOAD PUSH32 0x8C379A000000000000000000000000000000000000000000000000000000000 DUP2 MSTORE PUSH1 0x20 PUSH1 0x4 DUP3 ADD MSTORE PUSH1 0x17 PUSH1 0x24 DUP3 ADD MSTORE PUSH32 0x5045524D49545F444541444C494E455F45585049524544000000000000000000 PUSH1 0x44 DUP3 ADD MSTORE REVERT JUMPDEST POP PUSH1 0x40 MLOAD RETURNDATASIZE PUSH1 0x0 DUP3 RETURNDATACOPY RETURNDATASIZE SWAP1 REVERT JUMPDEST ISZERO PUSH2 0xC77 JUMPI JUMP JUMPDEST PUSH1 0x64 PUSH1 0x40 MLOAD PUSH32 0x8C379A000000000000000000000000000000000000000000000000000000000 DUP2 MSTORE PUSH1 0x20 PUSH1 0x4 DUP3 ADD MSTORE PUSH1 0xE PUSH1 0x24 DUP3 ADD MSTORE PUSH32 0x494E56414C49445F5349474E4552000000000000000000000000000000000000 PUSH1 0x44 DUP3 ADD MSTORE REVERT JUMPDEST PUSH1 0x0 CHAINID PUSH32 0x0 SUB PUSH2 0xD23 JUMPI POP PUSH32 0x0 SWAP1 JUMP JUMPDEST PUSH1 0x40 MLOAD DUP2 SLOAD SWAP2 SWAP1 DUP2 PUSH2 0xD34 DUP5 PUSH2 0x170 JUMP JUMPDEST DUP1 DUP4 MSTORE PUSH1 0x20 SWAP5 DUP6 DUP5 ADD SWAP5 PUSH1 0x1 SWAP2 DUP3 DUP2 AND SWAP1 DUP2 ISZERO PUSH2 0xE66 JUMPI POP PUSH1 0x1 EQ PUSH2 0xE0E JUMPI JUMPDEST POP POP POP SWAP2 DUP2 PUSH2 0xD6B PUSH2 0xE08 SWAP4 PUSH2 0xDDC SWAP6 SUB DUP3 PUSH2 0x1C3 JUMP JUMPDEST MLOAD SWAP1 KECCAK256 PUSH1 0x40 DUP1 MLOAD PUSH32 0x8B73C3C69BB8FE3D512ECC4CF759CC79239F7B179B0FFACAA9A75D522B39400F SWAP6 DUP2 ADD SWAP6 DUP7 MSTORE PUSH1 0x20 DUP7 ADD SWAP3 SWAP1 SWAP3 MSTORE PUSH32 0xC89EFDAA54C0F20C7ADF612882DF0950F5A951637E0307CDCB4C672F298B8BC6 SWAP1 DUP6 ADD MSTORE CHAINID PUSH1 0x60 DUP6 ADD MSTORE ADDRESS PUSH1 0x80 DUP6 ADD MSTORE SWAP2 DUP3 SWAP1 PUSH1 0xA0 DUP6 ADD SWAP1 JUMP JUMPDEST SUB PUSH32 0xFFFFFFFFFFFFFFFFFFFFFFFFFFFFFFFFFFFFFFFFFFFFFFFFFFFFFFFFFFFFFFE0 DUP2 ADD DUP4 MSTORE DUP3 PUSH2 0x1C3 JUMP JUMPDEST MLOAD SWAP1 KECCAK256 SWAP1 JUMP JUMPDEST SWAP2 SWAP1 DUP7 SWAP4 POP DUP3 DUP1 MSTORE PUSH32 0x290DECD9548B62A8D60345A988386FC84BA6BC95484008F6362F93160EF3E563 JUMPDEST DUP3 DUP5 LT PUSH2 0xE51 JUMPI POP POP POP DUP3 ADD ADD DUP2 PUSH2 0xD6B PUSH2 0xE08 PUSH2 0xD54 JUMP JUMPDEST DUP1 SLOAD DUP7 DUP6 ADD DUP7 ADD MSTORE DUP8 SWAP5 SWAP1 SWAP4 ADD SWAP3 DUP2 ADD PUSH2 0xE38 JUMP JUMPDEST PUSH32 0xFFFFFFFFFFFFFFFFFFFFFFFFFFFFFFFFFFFFFFFFFFFFFFFFFFFFFFFFFFFFFF00 AND DUP8 MSTORE POP POP POP PUSH1 0x40 DUP4 ADD SWAP2 POP DUP3 SWAP1 POP PUSH2 0xD6B PUSH2 0xE08 PUSH2 0xD54 JUMP JUMPDEST SWAP1 PUSH1 0xFF PUSH1 0x6 SLOAD AND PUSH2 0x101C JUMPI PUSH32 0xDDF252AD1BE2C89B69C2B068FC378DAA952BA7F163C4A11628F55A4DF523B3EF SWAP1 PUSH20 0xFFFFFFFFFFFFFFFFFFFFFFFFFFFFFFFFFFFFFFFF SWAP1 PUSH2 0xF73 DUP3 DUP6 AND SWAP5 DUP6 PUSH1 0x0 MSTORE PUSH1 0x4 PUSH1 0x20 MSTORE DUP7 PUSH2 0xF22 PUSH1 0x40 PUSH1 0x0 KECCAK256 CALLER PUSH20 0xFFFFFFFFFFFFFFFFFFFFFFFFFFFFFFFFFFFFFFFF AND PUSH1 0x0 MSTORE PUSH1 0x20 MSTORE PUSH1 0x40 PUSH1 0x0 KECCAK256 SWAP1 JUMP JUMPDEST SLOAD PUSH32 0xFFFFFFFFFFFFFFFFFFFFFFFFFFFFFFFFFFFFFFFFFFFFFFFFFFFFFFFFFFFFFFFF DUP2 SUB PUSH2 0xFD0 JUMPI JUMPDEST POP POP PUSH20 0xFFFFFFFFFFFFFFFFFFFFFFFFFFFFFFFFFFFFFFFF AND PUSH1 0x0 MSTORE PUSH1 0x3 PUSH1 0x20 MSTORE PUSH1 0x40 PUSH1 0x0 KECCAK256 SWAP1 JUMP JUMPDEST PUSH2 0xF7E DUP7 DUP3 SLOAD PUSH2 0xBE7 JUMP JUMPDEST SWAP1 SSTORE PUSH2 0xFAA DUP2 PUSH20 0xFFFFFFFFFFFFFFFFFFFFFFFFFFFFFFFFFFFFFFFF AND PUSH1 0x0 MSTORE PUSH1 0x3 PUSH1 0x20 MSTORE PUSH1 0x40 PUSH1 0x0 KECCAK256 SWAP1 JUMP JUMPDEST DUP1 SLOAD DUP7 ADD SWAP1 SSTORE PUSH1 0x40 MLOAD SWAP5 DUP6 MSTORE AND SWAP3 PUSH1 0x20 SWAP1 LOG3 PUSH1 0x6 SLOAD PUSH1 0x8 SHR PUSH1 0xFF AND PUSH2 0xFCE JUMPI PUSH1 0x1 SWAP1 JUMP JUMPDEST STOP JUMPDEST DUP2 DUP2 LT PUSH2 0x100F JUMPI JUMPDEST SUB PUSH2 0x1007 CALLER PUSH2 0xAAA DUP5 PUSH20 0xFFFFFFFFFFFFFFFFFFFFFFFFFFFFFFFFFFFFFFFF AND PUSH1 0x0 MSTORE PUSH1 0x4 PUSH1 0x20 MSTORE PUSH1 0x40 PUSH1 0x0 KECCAK256 SWAP1 JUMP JUMPDEST SSTORE DUP7 CODESIZE PUSH2 0xF4B JUMP JUMPDEST PUSH2 0x1017 PUSH2 0xBB7 JUMP JUMPDEST PUSH2 0xFD8 JUMP JUMPDEST POP POP POP PUSH1 0x0 SWAP1 JUMP INVALID LOG2 PUSH5 0x6970667358 0x22 SLT KECCAK256 0x4A NOT 0xF8 0xD9 0xC4 DUP3 PUSH11 0x737E0977A99C3BCEB2F23F CALL 0xB3 0xDE 0xDE 0xE5 PUSH28 0xD8B2A9B3BACF362C64736F6C634300080E0033000000000000000000 "
        },
        "methodIdentifiers": {
          "DOMAIN_SEPARATOR()": "3644e515",
          "allowance(address,address)": "dd62ed3e",
          "approve(address,uint256)": "095ea7b3",
          "balanceOf(address)": "70a08231",
          "blockTransfer(bool)": "e074d6a9",
          "blocked()": "303bdd2c",
          "decimals()": "313ce567",
          "mint(address,uint256)": "40c10f19",
          "name()": "06fdde03",
          "noReturnData()": "1b243845",
          "nonces(address)": "7ecebe00",
          "permit(address,address,uint256,uint256,uint8,bytes32,bytes32)": "d505accf",
          "setNoReturnData(bool)": "cd1b5b71",
          "symbol()": "95d89b41",
          "totalSupply()": "18160ddd",
          "transfer(address,uint256)": "a9059cbb",
          "transferFrom(address,address,uint256)": "23b872dd"
        }
      }
    }
  }
}