{
  "contracts/test/TestERC1155.sol": {
    "TestERC1155": {
      "abi": [
        {
          "anonymous": false,
          "inputs": [
            {
              "indexed": true,
              "internalType": "address",
              "name": "owner",
              "type": "address"
            },
            {
              "indexed": true,
              "internalType": "address",
              "name": "operator",
              "type": "address"
            },
            {
              "indexed": false,
              "internalType": "bool",
              "name": "approved",
              "type": "bool"
            }
          ],
          "name": "ApprovalForAll",
          "type": "event"
        },
        {
          "anonymous": false,
          "inputs": [
            {
              "indexed": true,
              "internalType": "address",
              "name": "operator",
              "type": "address"
            },
            {
              "indexed": true,
              "internalType": "address",
              "name": "from",
              "type": "address"
            },
            {
              "indexed": true,
              "internalType": "address",
              "name": "to",
              "type": "address"
            },
            {
              "indexed": false,
              "internalType": "uint256[]",
              "name": "ids",
              "type": "uint256[]"
            },
            {
              "indexed": false,
              "internalType": "uint256[]",
              "name": "amounts",
              "type": "uint256[]"
            }
          ],
          "name": "TransferBatch",
          "type": "event"
        },
        {
          "anonymous": false,
          "inputs": [
            {
              "indexed": true,
              "internalType": "address",
              "name": "operator",
              "type": "address"
            },
            {
              "indexed": true,
              "internalType": "address",
              "name": "from",
              "type": "address"
            },
            {
              "indexed": true,
              "internalType": "address",
              "name": "to",
              "type": "address"
            },
            {
              "indexed": false,
              "internalType": "uint256",
              "name": "id",
              "type": "uint256"
            },
            {
              "indexed": false,
              "internalType": "uint256",
              "name": "amount",
              "type": "uint256"
            }
          ],
          "name": "TransferSingle",
          "type": "event"
        },
        {
          "anonymous": false,
          "inputs": [
            {
              "indexed": false,
              "internalType": "string",
              "name": "value",
              "type": "string"
            },
            {
              "indexed": true,
              "internalType": "uint256",
              "name": "id",
              "type": "uint256"
            }
          ],
          "name": "URI",
          "type": "event"
        },
        {
          "inputs": [
            {
              "internalType": "address",
              "name": "",
              "type": "address"
            },
            {
              "internalType": "uint256",
              "name": "",
              "type": "uint256"
            }
          ],
          "name": "balanceOf",
          "outputs": [
            {
              "internalType": "uint256",
              "name": "",
              "type": "uint256"
            }
          ],
          "stateMutability": "view",
          "type": "function"
        },
        {
          "inputs": [
            {
              "internalType": "address[]",
              "name": "owners",
              "type": "address[]"
            },
            {
              "internalType": "uint256[]",
              "name": "ids",
              "type": "uint256[]"
            }
          ],
          "name": "balanceOfBatch",
          "outputs": [
            {
              "internalType": "uint256[]",
              "name": "balances",
              "type": "uint256[]"
            }
          ],
          "stateMutability": "view",
          "type": "function"
        },
        {
          "inputs": [
            {
              "internalType": "address",
              "name": "",
              "type": "address"
            },
            {
              "internalType": "address",
              "name": "",
              "type": "address"
            }
          ],
          "name": "isApprovedForAll",
          "outputs": [
            {
              "internalType": "bool",
              "name": "",
              "type": "bool"
            }
          ],
          "stateMutability": "view",
          "type": "function"
        },
        {
          "inputs": [
            {
              "internalType": "address",
              "name": "to",
              "type": "address"
            },
            {
              "internalType": "uint256",
              "name": "tokenId",
              "type": "uint256"
            },
            {
              "internalType": "uint256",
              "name": "amount",
              "type": "uint256"
            }
          ],
          "name": "mint",
          "outputs": [
            {
              "internalType": "bool",
              "name": "",
              "type": "bool"
            }
          ],
          "stateMutability": "nonpayable",
          "type": "function"
        },
        {
          "inputs": [
            {
              "internalType": "address",
              "name": "from",
              "type": "address"
            },
            {
              "internalType": "address",
              "name": "to",
              "type": "address"
            },
            {
              "internalType": "uint256[]",
              "name": "ids",
              "type": "uint256[]"
            },
            {
              "internalType": "uint256[]",
              "name": "amounts",
              "type": "uint256[]"
            },
            {
              "internalType": "bytes",
              "name": "data",
              "type": "bytes"
            }
          ],
          "name": "safeBatchTransferFrom",
          "outputs": [],
          "stateMutability": "nonpayable",
          "type": "function"
        },
        {
          "inputs": [
            {
              "internalType": "address",
              "name": "from",
              "type": "address"
            },
            {
              "internalType": "address",
              "name": "to",
              "type": "address"
            },
            {
              "internalType": "uint256",
              "name": "id",
              "type": "uint256"
            },
            {
              "internalType": "uint256",
              "name": "amount",
              "type": "uint256"
            },
            {
              "internalType": "bytes",
              "name": "data",
              "type": "bytes"
            }
          ],
          "name": "safeTransferFrom",
          "outputs": [],
          "stateMutability": "nonpayable",
          "type": "function"
        },
        {
          "inputs": [
            {
              "internalType": "address",
              "name": "operator",
              "type": "address"
            },
            {
              "internalType": "bool",
              "name": "approved",
              "type": "bool"
            }
          ],
          "name": "setApprovalForAll",
          "outputs": [],
          "stateMutability": "nonpayable",
          "type": "function"
        },
        {
          "inputs": [
            {
              "internalType": "bytes4",
              "name": "interfaceId",
              "type": "bytes4"
            }
          ],
          "name": "supportsInterface",
          "outputs": [
            {
              "internalType": "bool",
              "name": "",
              "type": "bool"
            }
          ],
          "stateMutability": "view",
          "type": "function"
        },
        {
          "inputs": [
            {
              "internalType": "uint256",
              "name": "",
              "type": "uint256"
            }
          ],
          "name": "uri",
          "outputs": [
            {
              "internalType": "string",
              "name": "",
              "type": "string"
            }
          ],
          "stateMutability": "pure",
          "type": "function"
        }
      ],
      "evm": {
        "bytecode": {
          "linkReferences": {},
          "object": "608080604052346100165761125f908161001c8239f35b600080fdfe608080604052600436101561001357600080fd5b6000803560e01c918262fdd58e146100cb575050806301ffc9a7146100c25780630e89341c146100b9578063156e29f6146100b05780632eb2c2d6146100a75780634e1273f41461009e578063a22cb46514610095578063e985e9c51461008c5763f242432a14610084575b600080fd5b61007f61096d565b5061007f6108ca565b5061007f6107d8565b5061007f610693565b5061007f6105ad565b5061007f610382565b5061007f6102e2565b5061007f610182565b346101365760407ffffffffffffffffffffffffffffffffffffffffffffffffffffffffffffffffc36011261013657604060209273ffffffffffffffffffffffffffffffffffffffff6004356101208161013a565b1681528084528181206024358252845220548152f35b5080fd5b73ffffffffffffffffffffffffffffffffffffffff81160361007f57565b7fffffffff0000000000000000000000000000000000000000000000000000000081160361007f57565b503461007f5760207ffffffffffffffffffffffffffffffffffffffffffffffffffffffffffffffffc36011261007f5760207fffffffff000000000000000000000000000000000000000000000000000000006004356101e181610158565b167f01ffc9a7000000000000000000000000000000000000000000000000000000008114908115610249575b811561021f575b506040519015158152f35b7f0e89341c0000000000000000000000000000000000000000000000000000000091501438610214565b7fd9b67a26000000000000000000000000000000000000000000000000000000008114915061020d565b91908251928382526000905b8482106102ca5750601f84602094957fffffffffffffffffffffffffffffffffffffffffffffffffffffffffffffffe093116102bd575b0116010190565b60008582860101526102b6565b9060209081808285010151908286010152019061027f565b503461007f5760207ffffffffffffffffffffffffffffffffffffffffffffffffffffffffffffffffc36011261007f576103716040516040810181811067ffffffffffffffff821117610375575b604052600381527f75726900000000000000000000000000000000000000000000000000000000006020820152604051918291602083526020830190610273565b0390f35b61037d610c70565b610330565b503461007f5760607ffffffffffffffffffffffffffffffffffffffffffffffffffffffffffffffffc36011261007f5761048a6004356103c18161013a565b6024356044356103cf6111b7565b61040c836103fd8673ffffffffffffffffffffffffffffffffffffffff166000526000602052604060002090565b90600052602052604060002090565b610417838254610c58565b905573ffffffffffffffffffffffffffffffffffffffff8416938460006040517fc3d58168c5ae7397731d063d5bbf3d657854427343f4c083240f7aacaa2d0f62339180610473898b8360209093929193604081019481520152565b0390a4600092903b61049657505050501515610d94565b60405160018152602090f35b6104f9917fffffffff000000000000000000000000000000000000000000000000000000009495602092856040518096819582947ff23a6e61000000000000000000000000000000000000000000000000000000009c8d855233600486016111e9565b03925af1918215610541575b91610513575b501614610d94565b610534915060203d811161053a575b61052c8183610ca0565b810190610cee565b3861050b565b503d610522565b610549610d87565b610505565b9181601f8401121561007f5782359167ffffffffffffffff831161007f576020808501948460051b01011161007f57565b9181601f8401121561007f5782359167ffffffffffffffff831161007f576020838186019501011161007f57565b503461007f5760a07ffffffffffffffffffffffffffffffffffffffffffffffffffffffffffffffffc36011261007f576004356105e98161013a565b6024356105f58161013a565b67ffffffffffffffff9160443583811161007f5761061790369060040161054e565b9060643585811161007f5761063090369060040161054e565b92909160843596871161007f5761064e61065697369060040161057f565b969095610f72565b005b6020908160408183019282815285518094520193019160005b82811061067f575050505090565b835185529381019392810192600101610671565b503461007f576040807ffffffffffffffffffffffffffffffffffffffffffffffffffffffffffffffffc36011261007f5767ffffffffffffffff9060043582811161007f576106e690369060040161054e565b91909260243590811161007f5761070190369060040161054e565b939061070e858514610df9565b61071784611174565b9361072484519586610ca0565b8085527fffffffffffffffffffffffffffffffffffffffffffffffffffffffffffffffe061075182611174565b016020903682880137600091825b818110610773578651806103718a82610658565b8073ffffffffffffffffffffffffffffffffffffffff610796600193858a610e8e565b356107a08161013a565b1685528484526107c68886206107b7838d8a610e8e565b35600052602052604060002090565b546107d1828b611195565b520161075f565b503461007f5760407ffffffffffffffffffffffffffffffffffffffffffffffffffffffffffffffffc36011261007f576004356108148161013a565b6024359081151580920361007f5773ffffffffffffffffffffffffffffffffffffffff9033600052600160205261086f8160406000209073ffffffffffffffffffffffffffffffffffffffff16600052602052604060002090565b7fffffffffffffffffffffffffffffffffffffffffffffffffffffffffffffff0081541660ff851617905560405192835216907f17307eab39ab6107e8899845ad3d59bd9653f200f220920489ca2b5937696c3160203392a3005b503461007f5760407ffffffffffffffffffffffffffffffffffffffffffffffffffffffffffffffffc36011261007f57602060ff61096160043561090d8161013a565b73ffffffffffffffffffffffffffffffffffffffff6024359161092f8361013a565b166000526001845260406000209073ffffffffffffffffffffffffffffffffffffffff16600052602052604060002090565b54166040519015158152f35b503461007f5760a07ffffffffffffffffffffffffffffffffffffffffffffffffffffffffffffffffc36011261007f576004356109a98161013a565b6024356109b58161013a565b6084359160443560643567ffffffffffffffff851161007f576109df61065695369060040161057f565b9173ffffffffffffffffffffffffffffffffffffffff95868616968733148015610b44575b610a0d90610bac565b610a3b866103fd8973ffffffffffffffffffffffffffffffffffffffff166000526000602052604060002090565b610a46848254610c41565b9055610a76866103fd8473ffffffffffffffffffffffffffffffffffffffff166000526000602052604060002090565b610a81848254610c58565b9055811680976040517fc3d58168c5ae7397731d063d5bbf3d657854427343f4c083240f7aacaa2d0f62339180610ac6888c8360209093929193604081019481520152565b0390a4600094903b610adf575050505050501515610d94565b9560209291857fffffffff0000000000000000000000000000000000000000000000000000000097986104f9604051978896879586947ff23a6e61000000000000000000000000000000000000000000000000000000009e8f87523360048801610d45565b50610a0d610ba5610b9e33610b798b73ffffffffffffffffffffffffffffffffffffffff166000526001602052604060002090565b9073ffffffffffffffffffffffffffffffffffffffff16600052602052604060002090565b5460ff1690565b9050610a04565b15610bb357565b60646040517f08c379a000000000000000000000000000000000000000000000000000000000815260206004820152600e60248201527f4e4f545f415554484f52495a45440000000000000000000000000000000000006044820152fd5b507f4e487b7100000000000000000000000000000000000000000000000000000000600052601160045260246000fd5b818110610c4c570390565b610c54610c11565b0390565b81198111610c64570190565b610c6c610c11565b0190565b507f4e487b7100000000000000000000000000000000000000000000000000000000600052604160045260246000fd5b90601f7fffffffffffffffffffffffffffffffffffffffffffffffffffffffffffffffe0910116810190811067ffffffffffffffff821117610ce157604052565b610ce9610c70565b604052565b9081602091031261007f5751610d0381610158565b90565b601f82602094937fffffffffffffffffffffffffffffffffffffffffffffffffffffffffffffffe0938186528686013760008582860101520116010190565b9192610d0396949160a09473ffffffffffffffffffffffffffffffffffffffff8092168552166020840152604083015260608201528160808201520191610d06565b506040513d6000823e3d90fd5b15610d9b57565b60646040517f08c379a000000000000000000000000000000000000000000000000000000000815260206004820152601060248201527f554e534146455f524543495049454e54000000000000000000000000000000006044820152fd5b15610e0057565b60646040517f08c379a000000000000000000000000000000000000000000000000000000000815260206004820152600f60248201527f4c454e4754485f4d49534d4154434800000000000000000000000000000000006044820152fd5b507f4e487b7100000000000000000000000000000000000000000000000000000000600052603260045260246000fd5b9190811015610e9f575b60051b0190565b610ea7610e5e565b610e98565b90918281527f07ffffffffffffffffffffffffffffffffffffffffffffffffffffffffffffff831161007f5760209260051b80928483013701016000815290565b9290610f0690610d039593604086526040860191610eac565b926020818503910152610eac565b969492610f6494610f5692610d039a989473ffffffffffffffffffffffffffffffffffffffff8092168b521660208a015260a060408a015260a0890191610eac565b918683036060880152610eac565b926080818503910152610d06565b90959392919496610f84888414610df9565b73ffffffffffffffffffffffffffffffffffffffff96878316978833148015611138575b610fb190610bac565b8760005b8b878083106110a0575050505081168098887f4a39dc06d4c0dbc64b70af90fd698a233a518aa5d07e595d983b8c0526c8f7fb610ffc8d6040519182918c8c339785610eed565b0390a4600095903b61101d575050505050505061101b91501515610d94565b565b6040979596975198899586957fbc197c81000000000000000000000000000000000000000000000000000000009a8b88523396600489019761105e98610f14565b0381845a94602095f161101b937fffffffff00000000000000000000000000000000000000000000000000000000928215610541579161051357501614610d94565b6111266110bf846110b78161112e95600199610e8e565b35948d610e8e565b35926110ef816103fd8c73ffffffffffffffffffffffffffffffffffffffff166000526000602052604060002090565b6110fa858254610c41565b90556103fd8873ffffffffffffffffffffffffffffffffffffffff166000526000602052604060002090565b918254610c58565b9055018890610fb5565b50610fb161116d610b9e33610b798873ffffffffffffffffffffffffffffffffffffffff166000526001602052604060002090565b9050610fa8565b60209067ffffffffffffffff811161118d5760051b0190565b610ea7610c70565b60209181518110156111aa575b60051b010190565b6111b2610e5e565b6111a2565b604051906020820182811067ffffffffffffffff8211176111dc575b60405260008252565b6111e4610c70565b6111d3565b909260a09273ffffffffffffffffffffffffffffffffffffffff610d0396951683526000602084015260408301526060820152816080820152019061027356fea26469706673582212200e7f2f4eeec30e68f3814a54aed8de2479795ffd4a6cc6ddc509e06dd1fb212364736f6c634300080e0033",
          "opcodes": "PUSH1 0x80 DUP1 PUSH1 0x40 MSTORE CALLVALUE PUSH2 0x16 JUMPI PUSH2 0x125F SWAP1 DUP2 PUSH2 0x1C DUP3 CODECOPY RETURN JUMPDEST PUSH1 0x0 DUP1 REVERT INVALID PUSH1 0x80 DUP1 PUSH1 0x40 MSTORE PUSH1 0x4 CALLDATASIZE LT ISZERO PUSH2 0x13 JUMPI PUSH1 0x0 DUP1 REVERT JUMPDEST PUSH1 0x0 DUP1 CALLDATALOAD PUSH1 0xE0 SHR SWAP2 DUP3 PUSH3 0xFDD58E EQ PUSH2 0xCB JUMPI POP POP DUP1 PUSH4 0x1FFC9A7 EQ PUSH2 0xC2 JUMPI DUP1 PUSH4 0xE89341C EQ PUSH2 0xB9 JUMPI DUP1 PUSH4 0x156E29F6 EQ PUSH2 0xB0 JUMPI DUP1 PUSH4 0x2EB2C2D6 EQ PUSH2 0xA7 JUMPI DUP1 PUSH4 0x4E1273F4 EQ PUSH2 0x9E JUMPI DUP1 PUSH4 0xA22CB465 EQ PUSH2 0x95 JUMPI DUP1 PUSH4 0xE985E9C5 EQ PUSH2 0x8C JUMPI PUSH4 0xF242432A EQ PUSH2 0x84 JUMPI JUMPDEST PUSH1 0x0 DUP1 REVERT JUMPDEST PUSH2 0x7F PUSH2 0x96D JUMP JUMPDEST POP PUSH2 0x7F PUSH2 0x8CA JUMP JUMPDEST POP PUSH2 0x7F PUSH2 0x7D8 JUMP JUMPDEST POP PUSH2 0x7F PUSH2 0x693 JUMP JUMPDEST POP PUSH2 0x7F PUSH2 0x5AD JUMP JUMPDEST POP PUSH2 0x7F PUSH2 0x382 JUMP JUMPDEST POP PUSH2 0x7F PUSH2 0x2E2 JUMP JUMPDEST POP PUSH2 0x7F PUSH2 0x182 JUMP JUMPDEST CALLVALUE PUSH2 0x136 JUMPI PUSH1 0x40 PUSH32 0xFFFFFFFFFFFFFFFFFFFFFFFFFFFFFFFFFFFFFFFFFFFFFFFFFFFFFFFFFFFFFFFC CALLDATASIZE ADD SLT PUSH2 0x136 JUMPI PUSH1 0x40 PUSH1 0x20 SWAP3 PUSH20 0xFFFFFFFFFFFFFFFFFFFFFFFFFFFFFFFFFFFFFFFF PUSH1 0x4 CALLDATALOAD PUSH2 0x120 DUP2 PUSH2 0x13A JUMP JUMPDEST AND DUP2 MSTORE DUP1 DUP5 MSTORE DUP2 DUP2 KECCAK256 PUSH1 0x24 CALLDATALOAD DUP3 MSTORE DUP5 MSTORE KECCAK256 SLOAD DUP2 MSTORE RETURN JUMPDEST POP DUP1 REVERT JUMPDEST PUSH20 0xFFFFFFFFFFFFFFFFFFFFFFFFFFFFFFFFFFFFFFFF DUP2 AND SUB PUSH2 0x7F JUMPI JUMP JUMPDEST PUSH32 0xFFFFFFFF00000000000000000000000000000000000000000000000000000000 DUP2 AND SUB PUSH2 0x7F JUMPI JUMP JUMPDEST POP CALLVALUE PUSH2 0x7F JUMPI PUSH1 0x20 PUSH32 0xFFFFFFFFFFFFFFFFFFFFFFFFFFFFFFFFFFFFFFFFFFFFFFFFFFFFFFFFFFFFFFFC CALLDATASIZE ADD SLT PUSH2 0x7F JUMPI PUSH1 0x20 PUSH32 0xFFFFFFFF00000000000000000000000000000000000000000000000000000000 PUSH1 0x4 CALLDATALOAD PUSH2 0x1E1 DUP2 PUSH2 0x158 JUMP JUMPDEST AND PUSH32 0x1FFC9A700000000000000000000000000000000000000000000000000000000 DUP2 EQ SWAP1 DUP2 ISZERO PUSH2 0x249 JUMPI JUMPDEST DUP2 ISZERO PUSH2 0x21F JUMPI JUMPDEST POP PUSH1 0x40 MLOAD SWAP1 ISZERO ISZERO DUP2 MSTORE RETURN JUMPDEST PUSH32 0xE89341C00000000000000000000000000000000000000000000000000000000 SWAP2 POP EQ CODESIZE PUSH2 0x214 JUMP JUMPDEST PUSH32 0xD9B67A2600000000000000000000000000000000000000000000000000000000 DUP2 EQ SWAP2 POP PUSH2 0x20D JUMP JUMPDEST SWAP2 SWAP1 DUP3 MLOAD SWAP3 DUP4 DUP3 MSTORE PUSH1 0x0 SWAP1 JUMPDEST DUP5 DUP3 LT PUSH2 0x2CA JUMPI POP PUSH1 0x1F DUP5 PUSH1 0x20 SWAP5 SWAP6 PUSH32 0xFFFFFFFFFFFFFFFFFFFFFFFFFFFFFFFFFFFFFFFFFFFFFFFFFFFFFFFFFFFFFFE0 SWAP4 GT PUSH2 0x2BD JUMPI JUMPDEST ADD AND ADD ADD SWAP1 JUMP JUMPDEST PUSH1 0x0 DUP6 DUP3 DUP7 ADD ADD MSTORE PUSH2 0x2B6 JUMP JUMPDEST SWAP1 PUSH1 0x20 SWAP1 DUP2 DUP1 DUP3 DUP6 ADD ADD MLOAD SWAP1 DUP3 DUP7 ADD ADD MSTORE ADD SWAP1 PUSH2 0x27F JUMP JUMPDEST POP CALLVALUE PUSH2 0x7F JUMPI PUSH1 0x20 PUSH32 0xFFFFFFFFFFFFFFFFFFFFFFFFFFFFFFFFFFFFFFFFFFFFFFFFFFFFFFFFFFFFFFFC CALLDATASIZE ADD SLT PUSH2 0x7F JUMPI PUSH2 0x371 PUSH1 0x40 MLOAD PUSH1 0x40 DUP2 ADD DUP2 DUP2 LT PUSH8 0xFFFFFFFFFFFFFFFF DUP3 GT OR PUSH2 0x375 JUMPI JUMPDEST PUSH1 0x40 MSTORE PUSH1 0x3 DUP2 MSTORE PUSH32 0x7572690000000000000000000000000000000000000000000000000000000000 PUSH1 0x20 DUP3 ADD MSTORE PUSH1 0x40 MLOAD SWAP2 DUP3 SWAP2 PUSH1 0x20 DUP4 MSTORE PUSH1 0x20 DUP4 ADD SWAP1 PUSH2 0x273 JUMP JUMPDEST SUB SWAP1 RETURN JUMPDEST PUSH2 0x37D PUSH2 0xC70 JUMP JUMPDEST PUSH2 0x330 JUMP JUMPDEST POP CALLVALUE PUSH2 0x7F JUMPI PUSH1 0x60 PUSH32 0xFFFFFFFFFFFFFFFFFFFFFFFFFFFFFFFFFFFFFFFFFFFFFFFFFFFFFFFFFFFFFFFC CALLDATASIZE ADD SLT PUSH2 0x7F JUMPI PUSH2 0x48A PUSH1 0x4 CALLDATALOAD PUSH2 0x3C1 DUP2 PUSH2 0x13A JUMP JUMPDEST PUSH1 0x24 CALLDATALOAD PUSH1 0x44 CALLDATALOAD PUSH2 0x3CF PUSH2 0x11B7 JUMP JUMPDEST PUSH2 0x40C DUP4 PUSH2 0x3FD DUP7 PUSH20 0xFFFFFFFFFFFFFFFFFFFFFFFFFFFFFFFFFFFFFFFF AND PUSH1 0x0 MSTORE PUSH1 0x0 PUSH1 0x20 MSTORE PUSH1 0x40 PUSH1 0x0 KECCAK256 SWAP1 JUMP JUMPDEST SWAP1 PUSH1 0x0 MSTORE PUSH1 0x20 MSTORE PUSH1 0x40 PUSH1 0x0 KECCAK256 SWAP1 JUMP JUMPDEST PUSH2 0x417 DUP4 DUP3 SLOAD PUSH2 0xC58 JUMP JUMPDEST SWAP1 SSTORE PUSH20 0xFFFFFFFFFFFFFFFFFFFFFFFFFFFFFFFFFFFFFFFF DUP5 AND SWAP4 DUP5 PUSH1 0x0 PUSH1 0x40 MLOAD PUSH32 0xC3D58168C5AE7397731D063D5BBF3D657854427343F4C083240F7AACAA2D0F62 CALLER SWAP2 DUP1 PUSH2 0x473 DUP10 DUP12 DUP4 PUSH1 0x20 SWAP1 SWAP4 SWAP3 SWAP2 SWAP4 PUSH1 0x40 DUP2 ADD SWAP5 DUP2 MSTORE ADD MSTORE JUMP JUMPDEST SUB SWAP1 LOG4 PUSH1 0x0 SWAP3 SWAP1 EXTCODESIZE PUSH2 0x496 JUMPI POP POP POP POP ISZERO ISZERO PUSH2 0xD94 JUMP JUMPDEST PUSH1 0x40 MLOAD PUSH1 0x1 DUP2 MSTORE PUSH1 0x20 SWAP1 RETURN JUMPDEST PUSH2 0x4F9 SWAP2 PUSH32 0xFFFFFFFF00000000000000000000000000000000000000000000000000000000 SWAP5 SWAP6 PUSH1 0x20 SWAP3 DUP6 PUSH1 0x40 MLOAD DUP1 SWAP7 DUP2 SWAP6 DUP3 SWAP5 PUSH32 0xF23A6E6100000000000000000000000000000000000000000000000000000000 SWAP13 DUP14 DUP6 MSTORE CALLER PUSH1 0x4 DUP7 ADD PUSH2 0x11E9 JUMP JUMPDEST SUB SWAP3 GAS CALL SWAP2 DUP3 ISZERO PUSH2 0x541 JUMPI JUMPDEST SWAP2 PUSH2 0x513 JUMPI JUMPDEST POP AND EQ PUSH2 0xD94 JUMP JUMPDEST PUSH2 0x534 SWAP2 POP PUSH1 0x20 RETURNDATASIZE DUP2 GT PUSH2 0x53A JUMPI JUMPDEST PUSH2 0x52C DUP2 DUP4 PUSH2 0xCA0 JUMP JUMPDEST DUP2 ADD SWAP1 PUSH2 0xCEE JUMP JUMPDEST CODESIZE PUSH2 0x50B JUMP JUMPDEST POP RETURNDATASIZE PUSH2 0x522 JUMP JUMPDEST PUSH2 0x549 PUSH2 0xD87 JUMP JUMPDEST PUSH2 0x505 JUMP JUMPDEST SWAP2 DUP2 PUSH1 0x1F DUP5 ADD SLT ISZERO PUSH2 0x7F JUMPI DUP3 CALLDATALOAD SWAP2 PUSH8 0xFFFFFFFFFFFFFFFF DUP4 GT PUSH2 0x7F JUMPI PUSH1 0x20 DUP1 DUP6 ADD SWAP5 DUP5 PUSH1 0x5 SHL ADD ADD GT PUSH2 0x7F JUMPI JUMP JUMPDEST SWAP2 DUP2 PUSH1 0x1F DUP5 ADD SLT ISZERO PUSH2 0x7F JUMPI DUP3 CALLDATALOAD SWAP2 PUSH8 0xFFFFFFFFFFFFFFFF DUP4 GT PUSH2 0x7F JUMPI PUSH1 0x20 DUP4 DUP2 DUP7 ADD SWAP6 ADD ADD GT PUSH2 0x7F JUMPI JUMP JUMPDEST POP CALLVALUE PUSH2 0x7F JUMPI PUSH1 0xA0 PUSH32 0xFFFFFFFFFFFFFFFFFFFFFFFFFFFFFFFFFFFFFFFFFFFFFFFFFFFFFFFFFFFFFFFC CALLDATASIZE ADD SLT PUSH2 0x7F JUMPI PUSH1 0x4 CALLDATALOAD PUSH2 0x5E9 DUP2 PUSH2 0x13A JUMP JUMPDEST PUSH1 0x24 CALLDATALOAD PUSH2 0x5F5 DUP2 PUSH2 0x13A JUMP JUMPDEST PUSH8 0xFFFFFFFFFFFFFFFF SWAP2 PUSH1 0x44 CALLDATALOAD DUP4 DUP2 GT PUSH2 0x7F JUMPI PUSH2 0x617 SWAP1 CALLDATASIZE SWAP1 PUSH1 0x4 ADD PUSH2 0x54E JUMP JUMPDEST SWAP1 PUSH1 0x64 CALLDATALOAD DUP6 DUP2 GT PUSH2 0x7F JUMPI PUSH2 0x630 SWAP1 CALLDATASIZE SWAP1 PUSH1 0x4 ADD PUSH2 0x54E JUMP JUMPDEST SWAP3 SWAP1 SWAP2 PUSH1 0x84 CALLDATALOAD SWAP7 DUP8 GT PUSH2 0x7F JUMPI PUSH2 0x64E PUSH2 0x656 SWAP8 CALLDATASIZE SWAP1 PUSH1 0x4 ADD PUSH2 0x57F JUMP JUMPDEST SWAP7 SWAP1 SWAP6 PUSH2 0xF72 JUMP JUMPDEST STOP JUMPDEST PUSH1 0x20 SWAP1 DUP2 PUSH1 0x40 DUP2 DUP4 ADD SWAP3 DUP3 DUP2 MSTORE DUP6 MLOAD DUP1 SWAP5 MSTORE ADD SWAP4 ADD SWAP2 PUSH1 0x0 JUMPDEST DUP3 DUP2 LT PUSH2 0x67F JUMPI POP POP POP POP SWAP1 JUMP JUMPDEST DUP4 MLOAD DUP6 MSTORE SWAP4 DUP2 ADD SWAP4 SWAP3 DUP2 ADD SWAP3 PUSH1 0x1 ADD PUSH2 0x671 JUMP JUMPDEST POP CALLVALUE PUSH2 0x7F JUMPI PUSH1 0x40 DUP1 PUSH32 0xFFFFFFFFFFFFFFFFFFFFFFFFFFFFFFFFFFFFFFFFFFFFFFFFFFFFFFFFFFFFFFFC CALLDATASIZE ADD SLT PUSH2 0x7F JUMPI PUSH8 0xFFFFFFFFFFFFFFFF SWAP1 PUSH1 0x4 CALLDATALOAD DUP3 DUP2 GT PUSH2 0x7F JUMPI PUSH2 0x6E6 SWAP1 CALLDATASIZE SWAP1 PUSH1 0x4 ADD PUSH2 0x54E JUMP JUMPDEST SWAP2 SWAP1 SWAP3 PUSH1 0x24 CALLDATALOAD SWAP1 DUP2 GT PUSH2 0x7F JUMPI PUSH2 0x701 SWAP1 CALLDATASIZE SWAP1 PUSH1 0x4 ADD PUSH2 0x54E JUMP JUMPDEST SWAP4 SWAP1 PUSH2 0x70E DUP6 DUP6 EQ PUSH2 0xDF9 JUMP JUMPDEST PUSH2 0x717 DUP5 PUSH2 0x1174 JUMP JUMPDEST SWAP4 PUSH2 0x724 DUP5 MLOAD SWAP6 DUP7 PUSH2 0xCA0 JUMP JUMPDEST DUP1 DUP6 MSTORE PUSH32 0xFFFFFFFFFFFFFFFFFFFFFFFFFFFFFFFFFFFFFFFFFFFFFFFFFFFFFFFFFFFFFFE0 PUSH2 0x751 DUP3 PUSH2 0x1174 JUMP JUMPDEST ADD PUSH1 0x20 SWAP1 CALLDATASIZE DUP3 DUP9 ADD CALLDATACOPY PUSH1 0x0 SWAP2 DUP3 JUMPDEST DUP2 DUP2 LT PUSH2 0x773 JUMPI DUP7 MLOAD DUP1 PUSH2 0x371 DUP11 DUP3 PUSH2 0x658 JUMP JUMPDEST DUP1 PUSH20 0xFFFFFFFFFFFFFFFFFFFFFFFFFFFFFFFFFFFFFFFF PUSH2 0x796 PUSH1 0x1 SWAP4 DUP6 DUP11 PUSH2 0xE8E JUMP JUMPDEST CALLDATALOAD PUSH2 0x7A0 DUP2 PUSH2 0x13A JUMP JUMPDEST AND DUP6 MSTORE DUP5 DUP5 MSTORE PUSH2 0x7C6 DUP9 DUP7 KECCAK256 PUSH2 0x7B7 DUP4 DUP14 DUP11 PUSH2 0xE8E JUMP JUMPDEST CALLDATALOAD PUSH1 0x0 MSTORE PUSH1 0x20 MSTORE PUSH1 0x40 PUSH1 0x0 KECCAK256 SWAP1 JUMP JUMPDEST SLOAD PUSH2 0x7D1 DUP3 DUP12 PUSH2 0x1195 JUMP JUMPDEST MSTORE ADD PUSH2 0x75F JUMP JUMPDEST POP CALLVALUE PUSH2 0x7F JUMPI PUSH1 0x40 PUSH32 0xFFFFFFFFFFFFFFFFFFFFFFFFFFFFFFFFFFFFFFFFFFFFFFFFFFFFFFFFFFFFFFFC CALLDATASIZE ADD SLT PUSH2 0x7F JUMPI PUSH1 0x4 CALLDATALOAD PUSH2 0x814 DUP2 PUSH2 0x13A JUMP JUMPDEST PUSH1 0x24 CALLDATALOAD SWAP1 DUP2 ISZERO ISZERO DUP1 SWAP3 SUB PUSH2 0x7F JUMPI PUSH20 0xFFFFFFFFFFFFFFFFFFFFFFFFFFFFFFFFFFFFFFFF SWAP1 CALLER PUSH1 0x0 MSTORE PUSH1 0x1 PUSH1 0x20 MSTORE PUSH2 0x86F DUP2 PUSH1 0x40 PUSH1 0x0 KECCAK256 SWAP1 PUSH20 0xFFFFFFFFFFFFFFFFFFFFFFFFFFFFFFFFFFFFFFFF AND PUSH1 0x0 MSTORE PUSH1 0x20 MSTORE PUSH1 0x40 PUSH1 0x0 KECCAK256 SWAP1 JUMP JUMPDEST PUSH32 0xFFFFFFFFFFFFFFFFFFFFFFFFFFFFFFFFFFFFFFFFFFFFFFFFFFFFFFFFFFFFFF00 DUP2 SLOAD AND PUSH1 0xFF DUP6 AND OR SWAP1 SSTORE PUSH1 0x40 MLOAD SWAP3 DUP4 MSTORE AND SWAP1 PUSH32 0x17307EAB39AB6107E8899845AD3D59BD9653F200F220920489CA2B5937696C31 PUSH1 0x20 CALLER SWAP3 LOG3 STOP JUMPDEST POP CALLVALUE PUSH2 0x7F JUMPI PUSH1 0x40 PUSH32 0xFFFFFFFFFFFFFFFFFFFFFFFFFFFFFFFFFFFFFFFFFFFFFFFFFFFFFFFFFFFFFFFC CALLDATASIZE ADD SLT PUSH2 0x7F JUMPI PUSH1 0x20 PUSH1 0xFF PUSH2 0x961 PUSH1 0x4 CALLDATALOAD PUSH2 0x90D DUP2 PUSH2 0x13A JUMP JUMPDEST PUSH20 0xFFFFFFFFFFFFFFFFFFFFFFFFFFFFFFFFFFFFFFFF PUSH1 0x24 CALLDATALOAD SWAP2 PUSH2 0x92F DUP4 PUSH2 0x13A JUMP JUMPDEST AND PUSH1 0x0 MSTORE PUSH1 0x1 DUP5 MSTORE PUSH1 0x40 PUSH1 0x0 KECCAK256 SWAP1 PUSH20 0xFFFFFFFFFFFFFFFFFFFFFFFFFFFFFFFFFFFFFFFF AND PUSH1 0x0 MSTORE PUSH1 0x20 MSTORE PUSH1 0x40 PUSH1 0x0 KECCAK256 SWAP1 JUMP JUMPDEST SLOAD AND PUSH1 0x40 MLOAD SWAP1 ISZERO ISZERO DUP2 MSTORE RETURN JUMPDEST POP CALLVALUE PUSH2 0x7F JUMPI PUSH1 0xA0 PUSH32 0xFFFFFFFFFFFFFFFFFFFFFFFFFFFFFFFFFFFFFFFFFFFFFFFFFFFFFFFFFFFFFFFC CALLDATASIZE ADD SLT PUSH2 0x7F JUMPI PUSH1 0x4 CALLDATALOAD PUSH2 0x9A9 DUP2 PUSH2 0x13A JUMP JUMPDEST PUSH1 0x24 CALLDATALOAD PUSH2 0x9B5 DUP2 PUSH2 0x13A JUMP JUMPDEST PUSH1 0x84 CALLDATALOAD SWAP2 PUSH1 0x44 CALLDATALOAD PUSH1 0x64 CALLDATALOAD PUSH8 0xFFFFFFFFFFFFFFFF DUP6 GT PUSH2 0x7F JUMPI PUSH2 0x9DF PUSH2 0x656 SWAP6 CALLDATASIZE SWAP1 PUSH1 0x4 ADD PUSH2 0x57F JUMP JUMPDEST SWAP2 PUSH20 0xFFFFFFFFFFFFFFFFFFFFFFFFFFFFFFFFFFFFFFFF SWAP6 DUP7 DUP7 AND SWAP7 DUP8 CALLER EQ DUP1 ISZERO PUSH2 0xB44 JUMPI JUMPDEST PUSH2 0xA0D SWAP1 PUSH2 0xBAC JUMP JUMPDEST PUSH2 0xA3B DUP7 PUSH2 0x3FD DUP10 PUSH20 0xFFFFFFFFFFFFFFFFFFFFFFFFFFFFFFFFFFFFFFFF AND PUSH1 0x0 MSTORE PUSH1 0x0 PUSH1 0x20 MSTORE PUSH1 0x40 PUSH1 0x0 KECCAK256 SWAP1 JUMP JUMPDEST PUSH2 0xA46 DUP5 DUP3 SLOAD PUSH2 0xC41 JUMP JUMPDEST SWAP1 SSTORE PUSH2 0xA76 DUP7 PUSH2 0x3FD DUP5 PUSH20 0xFFFFFFFFFFFFFFFFFFFFFFFFFFFFFFFFFFFFFFFF AND PUSH1 0x0 MSTORE PUSH1 0x0 PUSH1 0x20 MSTORE PUSH1 0x40 PUSH1 0x0 KECCAK256 SWAP1 JUMP JUMPDEST PUSH2 0xA81 DUP5 DUP3 SLOAD PUSH2 0xC58 JUMP JUMPDEST SWAP1 SSTORE DUP2 AND DUP1 SWAP8 PUSH1 0x40 MLOAD PUSH32 0xC3D58168C5AE7397731D063D5BBF3D657854427343F4C083240F7AACAA2D0F62 CALLER SWAP2 DUP1 PUSH2 0xAC6 DUP9 DUP13 DUP4 PUSH1 0x20 SWAP1 SWAP4 SWAP3 SWAP2 SWAP4 PUSH1 0x40 DUP2 ADD SWAP5 DUP2 MSTORE ADD MSTORE JUMP JUMPDEST SUB SWAP1 LOG4 PUSH1 0x0 SWAP5 SWAP1 EXTCODESIZE PUSH2 0xADF JUMPI POP POP POP POP POP POP ISZERO ISZERO PUSH2 0xD94 JUMP JUMPDEST SWAP6 PUSH1 0x20 SWAP3 SWAP2 DUP6 PUSH32 0xFFFFFFFF00000000000000000000000000000000000000000000000000000000 SWAP8 SWAP9 PUSH2 0x4F9 PUSH1 0x40 MLOAD SWAP8 DUP9 SWAP7 DUP8 SWAP6 DUP7 SWAP5 PUSH32 0xF23A6E6100000000000000000000000000000000000000000000000000000000 SWAP15 DUP16 DUP8 MSTORE CALLER PUSH1 0x4 DUP9 ADD PUSH2 0xD45 JUMP JUMPDEST POP PUSH2 0xA0D PUSH2 0xBA5 PUSH2 0xB9E CALLER PUSH2 0xB79 DUP12 PUSH20 0xFFFFFFFFFFFFFFFFFFFFFFFFFFFFFFFFFFFFFFFF AND PUSH1 0x0 MSTORE PUSH1 0x1 PUSH1 0x20 MSTORE PUSH1 0x40 PUSH1 0x0 KECCAK256 SWAP1 JUMP JUMPDEST SWAP1 PUSH20 0xFFFFFFFFFFFFFFFFFFFFFFFFFFFFFFFFFFFFFFFF AND PUSH1 0x0 MSTORE PUSH1 0x20 MSTORE PUSH1 0x40 PUSH1 0x0 KECCAK256 SWAP1 JUMP JUMPDEST SLOAD PUSH1 0xFF AND SWAP1 JUMP JUMPDEST SWAP1 POP PUSH2 0xA04 JUMP JUMPDEST ISZERO PUSH2 0xBB3 JUMPI JUMP JUMPDEST PUSH1 0x64 PUSH1 0x40 MLOAD PUSH32 0x8C379A000000000000000000000000000000000000000000000000000000000 DUP2 MSTORE PUSH1 0x20 PUSH1 0x4 DUP3 ADD MSTORE PUSH1 0xE PUSH1 0x24 DUP3 ADD MSTORE PUSH32 0x4E4F545F415554484F52495A4544000000000000000000000000000000000000 PUSH1 0x44 DUP3 ADD MSTORE REVERT JUMPDEST POP PUSH32 0x4E487B7100000000000000000000000000000000000000000000000000000000 PUSH1 0x0 MSTORE PUSH1 0x11 PUSH1 0x4 MSTORE PUSH1 0x24 PUSH1 0x0 REVERT JUMPDEST DUP2 DUP2 LT PUSH2 0xC4C JUMPI SUB SWAP1 JUMP JUMPDEST PUSH2 0xC54 PUSH2 0xC11 JUMP JUMPDEST SUB SWAP1 JUMP JUMPDEST DUP2 NOT DUP2 GT PUSH2 0xC64 JUMPI ADD SWAP1 JUMP JUMPDEST PUSH2 0xC6C PUSH2 0xC11 JUMP JUMPDEST ADD SWAP1 JUMP JUMPDEST POP PUSH32 0x4E487B7100000000000000000000000000000000000000000000000000000000 PUSH1 0x0 MSTORE PUSH1 0x41 PUSH1 0x4 MSTORE PUSH1 0x24 PUSH1 0x0 REVERT JUMPDEST SWAP1 PUSH1 0x1F PUSH32 0xFFFFFFFFFFFFFFFFFFFFFFFFFFFFFFFFFFFFFFFFFFFFFFFFFFFFFFFFFFFFFFE0 SWAP2 ADD AND DUP2 ADD SWAP1 DUP2 LT PUSH8 0xFFFFFFFFFFFFFFFF DUP3 GT OR PUSH2 0xCE1 JUMPI PUSH1 0x40 MSTORE JUMP JUMPDEST PUSH2 0xCE9 PUSH2 0xC70 JUMP JUMPDEST PUSH1 0x40 MSTORE JUMP JUMPDEST SWAP1 DUP2 PUSH1 0x20 SWAP2 SUB SLT PUSH2 0x7F JUMPI MLOAD PUSH2 0xD03 DUP2 PUSH2 0x158 JUMP JUMPDEST SWAP1 JUMP JUMPDEST PUSH1 0x1F DUP3 PUSH1 0x20 SWAP5 SWAP4 PUSH32 0xFFFFFFFFFFFFFFFFFFFFFFFFFFFFFFFFFFFFFFFFFFFFFFFFFFFFFFFFFFFFFFE0 SWAP4 DUP2 DUP7 MSTORE DUP7 DUP7 ADD CALLDATACOPY PUSH1 0x0 DUP6 DUP3 DUP7 ADD ADD MSTORE ADD AND ADD ADD SWAP1 JUMP JUMPDEST SWAP2 SWAP3 PUSH2 0xD03 SWAP7 SWAP5 SWAP2 PUSH1 0xA0 SWAP5 PUSH20 0xFFFFFFFFFFFFFFFFFFFFFFFFFFFFFFFFFFFFFFFF DUP1 SWAP3 AND DUP6 MSTORE AND PUSH1 0x20 DUP5 ADD MSTORE PUSH1 0x40 DUP4 ADD MSTORE PUSH1 0x60 DUP3 ADD MSTORE DUP2 PUSH1 0x80 DUP3 ADD MSTORE ADD SWAP2 PUSH2 0xD06 JUMP JUMPDEST POP PUSH1 0x40 MLOAD RETURNDATASIZE PUSH1 0x0 DUP3 RETURNDATACOPY RETURNDATASIZE SWAP1 REVERT JUMPDEST ISZERO PUSH2 0xD9B JUMPI JUMP JUMPDEST PUSH1 0x64 PUSH1 0x40 MLOAD PUSH32 0x8C379A000000000000000000000000000000000000000000000000000000000 DUP2 MSTORE PUSH1 0x20 PUSH1 0x4 DUP3 ADD MSTORE PUSH1 0x10 PUSH1 0x24 DUP3 ADD MSTORE PUSH32 0x554E534146455F524543495049454E5400000000000000000000000000000000 PUSH1 0x44 DUP3 ADD MSTORE REVERT JUMPDEST ISZERO PUSH2 0xE00 JUMPI JUMP JUMPDEST PUSH1 0x64 PUSH1 0x40 MLOAD PUSH32 0x8C379A000000000000000000000000000000000000000000000000000000000 DUP2 MSTORE PUSH1 0x20 PUSH1 0x4 DUP3 ADD MSTORE PUSH1 0xF PUSH1 0x24 DUP3 ADD MSTORE PUSH32 0x4C454E4754485F4D49534D415443480000000000000000000000000000000000 PUSH1 0x44 DUP3 ADD MSTORE REVERT JUMPDEST POP PUSH32 0x4E487B7100000000000000000000000000000000000000000000000000000000 PUSH1 0x0 MSTORE PUSH1 0x32 PUSH1 0x4 MSTORE PUSH1 0x24 PUSH1 0x0 REVERT JUMPDEST SWAP2 SWAP1 DUP2 LT ISZERO PUSH2 0xE9F JUMPI JUMPDEST PUSH1 0x5 SHL ADD SWAP1 JUMP JUMPDEST PUSH2 0xEA7 PUSH2 0xE5E JUMP JUMPDEST PUSH2 0xE98 JUMP JUMPDEST SWAP1 SWAP2 DUP3 DUP2 MSTORE PUSH32 0x7FFFFFFFFFFFFFFFFFFFFFFFFFFFFFFFFFFFFFFFFFFFFFFFFFFFFFFFFFFFFFF DUP4 GT PUSH2 0x7F JUMPI PUSH1 0x20 SWAP3 PUSH1 0x5 SHL DUP1 SWAP3 DUP5 DUP4 ADD CALLDATACOPY ADD ADD PUSH1 0x0 DUP2 MSTORE SWAP1 JUMP JUMPDEST SWAP3 SWAP1 PUSH2 0xF06 SWAP1 PUSH2 0xD03 SWAP6 SWAP4 PUSH1 0x40 DUP7 MSTORE PUSH1 0x40 DUP7 ADD SWAP2 PUSH2 0xEAC JUMP JUMPDEST SWAP3 PUSH1 0x20 DUP2 DUP6 SUB SWAP2 ADD MSTORE PUSH2 0xEAC JUMP JUMPDEST SWAP7 SWAP5 SWAP3 PUSH2 0xF64 SWAP5 PUSH2 0xF56 SWAP3 PUSH2 0xD03 SWAP11 SWAP9 SWAP5 PUSH20 0xFFFFFFFFFFFFFFFFFFFFFFFFFFFFFFFFFFFFFFFF DUP1 SWAP3 AND DUP12 MSTORE AND PUSH1 0x20 DUP11 ADD MSTORE PUSH1 0xA0 PUSH1 0x40 DUP11 ADD MSTORE PUSH1 0xA0 DUP10 ADD SWAP2 PUSH2 0xEAC JUMP JUMPDEST SWAP2 DUP7 DUP4 SUB PUSH1 0x60 DUP9 ADD MSTORE PUSH2 0xEAC JUMP JUMPDEST SWAP3 PUSH1 0x80 DUP2 DUP6 SUB SWAP2 ADD MSTORE PUSH2 0xD06 JUMP JUMPDEST SWAP1 SWAP6 SWAP4 SWAP3 SWAP2 SWAP5 SWAP7 PUSH2 0xF84 DUP9 DUP5 EQ PUSH2 0xDF9 JUMP JUMPDEST PUSH20 0xFFFFFFFFFFFFFFFFFFFFFFFFFFFFFFFFFFFFFFFF SWAP7 DUP8 DUP4 AND SWAP8 DUP9 CALLER EQ DUP1 ISZERO PUSH2 0x1138 JUMPI JUMPDEST PUSH2 0xFB1 SWAP1 PUSH2 0xBAC JUMP JUMPDEST DUP8 PUSH1 0x0 JUMPDEST DUP12 DUP8 DUP1 DUP4 LT PUSH2 0x10A0 JUMPI POP POP POP POP DUP2 AND DUP1 SWAP9 DUP9 PUSH32 0x4A39DC06D4C0DBC64B70AF90FD698A233A518AA5D07E595D983B8C0526C8F7FB PUSH2 0xFFC DUP14 PUSH1 0x40 MLOAD SWAP2 DUP3 SWAP2 DUP13 DUP13 CALLER SWAP8 DUP6 PUSH2 0xEED JUMP JUMPDEST SUB SWAP1 LOG4 PUSH1 0x0 SWAP6 SWAP1 EXTCODESIZE PUSH2 0x101D JUMPI POP POP POP POP POP POP POP PUSH2 0x101B SWAP2 POP ISZERO ISZERO PUSH2 0xD94 JUMP JUMPDEST JUMP JUMPDEST PUSH1 0x40 SWAP8 SWAP6 SWAP7 SWAP8 MLOAD SWAP9 DUP10 SWAP6 DUP7 SWAP6 PUSH32 0xBC197C8100000000000000000000000000000000000000000000000000000000 SWAP11 DUP12 DUP9 MSTORE CALLER SWAP7 PUSH1 0x4 DUP10 ADD SWAP8 PUSH2 0x105E SWAP9 PUSH2 0xF14 JUMP JUMPDEST SUB DUP2 DUP5 GAS SWAP5 PUSH1 0x20 SWAP6 CALL PUSH2 0x101B SWAP4 PUSH32 0xFFFFFFFF00000000000000000000000000000000000000000000000000000000 SWAP3 DUP3 ISZERO PUSH2 0x541 JUMPI SWAP2 PUSH2 0x513 JUMPI POP AND EQ PUSH2 0xD94 JUMP JUMPDEST PUSH2 0x1126 PUSH2 0x10BF DUP5 PUSH2 0x10B7 DUP2 PUSH2 0x112E SWAP6 PUSH1 0x1 SWAP10 PUSH2 0xE8E JUMP JUMPDEST CALLDATALOAD SWAP5 DUP14 PUSH2 0xE8E JUMP JUMPDEST CALLDATALOAD SWAP3 PUSH2 0x10EF DUP2 PUSH2 0x3FD DUP13 PUSH20 0xFFFFFFFFFFFFFFFFFFFFFFFFFFFFFFFFFFFFFFFF AND PUSH1 0x0 MSTORE PUSH1 0x0 PUSH1 0x20 MSTORE PUSH1 0x40 PUSH1 0x0 KECCAK256 SWAP1 JUMP JUMPDEST PUSH2 0x10FA DUP6 DUP3 SLOAD PUSH2 0xC41 JUMP JUMPDEST SWAP1 SSTORE PUSH2 0x3FD DUP9 PUSH20 0xFFFFFFFFFFFFFFFFFFFFFFFFFFFFFFFFFFFFFFFF AND PUSH1 0x0 MSTORE PUSH1 0x0 PUSH1 0x20 MSTORE PUSH1 0x40 PUSH1 0x0 KECCAK256 SWAP1 JUMP JUMPDEST SWAP2 DUP3 SLOAD PUSH2 0xC58 JUMP JUMPDEST SWAP1 SSTORE ADD DUP9 SWAP1 PUSH2 0xFB5 JUMP JUMPDEST POP PUSH2 0xFB1 PUSH2 0x116D PUSH2 0xB9E CALLER PUSH2 0xB79 DUP9 PUSH20 0xFFFFFFFFFFFFFFFFFFFFFFFFFFFFFFFFFFFFFFFF AND PUSH1 0x0 MSTORE PUSH1 0x1 PUSH1 0x20 MSTORE PUSH1 0x40 PUSH1 0x0 KECCAK256 SWAP1 JUMP JUMPDEST SWAP1 POP PUSH2 0xFA8 JUMP JUMPDEST PUSH1 0x20 SWAP1 PUSH8 0xFFFFFFFFFFFFFFFF DUP2 GT PUSH2 0x118D JUMPI PUSH1 0x5 SHL ADD SWAP1 JUMP JUMPDEST PUSH2 0xEA7 PUSH2 0xC70 JUMP JUMPDEST PUSH1 0x20 SWAP2 DUP2 MLOAD DUP2 LT ISZERO PUSH2 0x11AA JUMPI JUMPDEST PUSH1 0x5 SHL ADD ADD SWAP1 JUMP JUMPDEST PUSH2 0x11B2 PUSH2 0xE5E JUMP JUMPDEST PUSH2 0x11A2 JUMP JUMPDEST PUSH1 0x40 MLOAD SWAP1 PUSH1 0x20 DUP3 ADD DUP3 DUP2 LT PUSH8 0xFFFFFFFFFFFFFFFF DUP3 GT OR PUSH2 0x11DC JUMPI JUMPDEST PUSH1 0x40 MSTORE PUSH1 0x0 DUP3 MSTORE JUMP JUMPDEST PUSH2 0x11E4 PUSH2 0xC70 JUMP JUMPDEST PUSH2 0x11D3 JUMP JUMPDEST SWAP1 SWAP3 PUSH1 0xA0 SWAP3 PUSH20 0xFFFFFFFFFFFFFFFFFFFFFFFFFFFFFFFFFFFFFFFF PUSH2 0xD03 SWAP7 SWAP6 AND DUP4 MSTORE PUSH1 0x0 PUSH1 0x20 DUP5 ADD MSTORE PUSH1 0x40 DUP4 ADD MSTORE PUSH1 0x60 DUP3 ADD MSTORE DUP2 PUSH1 0x80 DUP3 ADD MSTORE ADD SWAP1 PUSH2 0x273 JUMP INVALID LOG2 PUSH5 0x6970667358 0x22 SLT KECCAK256 0xE PUSH32 0x2F4EEEC30E68F3814A54AED8DE2479795FFD4A6CC6DDC509E06DD1FB21236473 PUSH16 0x6C634300080E00330000000000000000 "
        },
        "methodIdentifiers": {
          "balanceOf(address,uint256)": "00fdd58e",
          "balanceOfBatch(address[],uint256[])": "4e1273f4",
          "isApprovedForAll(address,address)": "e985e9c5",
          "mint(address,uint256,uint256)": "156e29f6",
          "safeBatchTransferFrom(address,address,uint256[],uint256[],bytes)": "2eb2c2d6",
          "safeTransferFrom(address,address,uint256,uint256,bytes)": "f242432a",
          "setApprovalForAll(address,bool)": "a22cb465",
          "supportsInterface(bytes4)": "01ffc9a7",
          "uri(uint256)": "0e89341c"
        }
      }
    }
  }
}