{
  "_format": "hh-sol-artifact-1",
  "contractName": "TestERC1155",
  "sourceName": "contracts/test/TestERC1155.sol",
  "abi": [
    {
      "anonymous": false,
      "inputs": [
        {
          "indexed": true,
          "internalType": "address",
          "name": "owner",
          "type": "address"
        },
        {
          "indexed": true,
          "internalType": "address",
          "name": "operator",
          "type": "address"
        },
        {
          "indexed": false,
          "internalType": "bool",
          "name": "approved",
          "type": "bool"
        }
      ],
      "name": "ApprovalForAll",
      "type": "event"
    },
    {
      "anonymous": false,
      "inputs": [
        {
          "indexed": true,
          "internalType": "address",
          "name": "operator",
          "type": "address"
        },
        {
          "indexed": true,
          "internalType": "address",
          "name": "from",
          "type": "address"
        },
        {
          "indexed": true,
          "internalType": "address",
          "name": "to",
          "type": "address"
        },
        {
          "indexed": false,
          "internalType": "uint256[]",
          "name": "ids",
          "type": "uint256[]"
        },
        {
          "indexed": false,
          "internalType": "uint256[]",
          "name": "amounts",
          "type": "uint256[]"
        }
      ],
      "name": "TransferBatch",
      "type": "event"
    },
    {
      "anonymous": false,
      "inputs": [
        {
          "indexed": true,
          "internalType": "address",
          "name": "operator",
          "type": "address"
        },
        {
          "indexed": true,
          "internalType": "address",
          "name": "from",
          "type": "address"
        },
        {
          "indexed": true,
          "internalType": "address",
          "name": "to",
          "type": "address"
        },
        {
          "indexed": false,
          "internalType": "uint256",
          "name": "id",
          "type": "uint256"
        },
        {
          "indexed": false,
          "internalType": "uint256",
          "name": "amount",
          "type": "uint256"
        }
      ],
      "name": "TransferSingle",
      "type": "event"
    },
    {
      "anonymous": false,
      "inputs": [
        {
          "indexed": false,
          "internalType": "string",
          "name": "value",
          "type": "string"
        },
        {
          "indexed": true,
          "internalType": "uint256",
          "name": "id",
          "type": "uint256"
        }
      ],
      "name": "URI",
      "type": "event"
    },
    {
      "inputs": [
        {
          "internalType": "address",
          "name": "",
          "type": "address"
        },
        {
          "internalType": "uint256",
          "name": "",
          "type": "uint256"
        }
      ],
      "name": "balanceOf",
      "outputs": [
        {
          "internalType": "uint256",
          "name": "",
          "type": "uint256"
        }
      ],
      "stateMutability": "view",
      "type": "function"
    },
    {
      "inputs": [
        {
          "internalType": "address[]",
          "name": "owners",
          "type": "address[]"
        },
        {
          "internalType": "uint256[]",
          "name": "ids",
          "type": "uint256[]"
        }
      ],
      "name": "balanceOfBatch",
      "outputs": [
        {
          "internalType": "uint256[]",
          "name": "balances",
          "type": "uint256[]"
        }
      ],
      "stateMutability": "view",
      "type": "function"
    },
    {
      "inputs": [
        {
          "internalType": "address",
          "name": "",
          "type": "address"
        },
        {
          "internalType": "address",
          "name": "",
          "type": "address"
        }
      ],
      "name": "isApprovedForAll",
      "outputs": [
        {
          "internalType": "bool",
          "name": "",
          "type": "bool"
        }
      ],
      "stateMutability": "view",
      "type": "function"
    },
    {
      "inputs": [
        {
          "internalType": "address",
          "name": "to",
          "type": "address"
        },
        {
          "internalType": "uint256",
          "name": "tokenId",
          "type": "uint256"
        },
        {
          "internalType": "uint256",
          "name": "amount",
          "type": "uint256"
        }
      ],
      "name": "mint",
      "outputs": [
        {
          "internalType": "bool",
          "name": "",
          "type": "bool"
        }
      ],
      "stateMutability": "nonpayable",
      "type": "function"
    },
    {
      "inputs": [
        {
          "internalType": "address",
          "name": "from",
          "type": "address"
        },
        {
          "internalType": "address",
          "name": "to",
          "type": "address"
        },
        {
          "internalType": "uint256[]",
          "name": "ids",
          "type": "uint256[]"
        },
        {
          "internalType": "uint256[]",
          "name": "amounts",
          "type": "uint256[]"
        },
        {
          "internalType": "bytes",
          "name": "data",
          "type": "bytes"
        }
      ],
      "name": "safeBatchTransferFrom",
      "outputs": [],
      "stateMutability": "nonpayable",
      "type": "function"
    },
    {
      "inputs": [
        {
          "internalType": "address",
          "name": "from",
          "type": "address"
        },
        {
          "internalType": "address",
          "name": "to",
          "type": "address"
        },
        {
          "internalType": "uint256",
          "name": "id",
          "type": "uint256"
        },
        {
          "internalType": "uint256",
          "name": "amount",
          "type": "uint256"
        },
        {
          "internalType": "bytes",
          "name": "data",
          "type": "bytes"
        }
      ],
      "name": "safeTransferFrom",
      "outputs": [],
      "stateMutability": "nonpayable",
      "type": "function"
    },
    {
      "inputs": [
        {
          "internalType": "address",
          "name": "operator",
          "type": "address"
        },
        {
          "internalType": "bool",
          "name": "approved",
          "type": "bool"
        }
      ],
      "name": "setApprovalForAll",
      "outputs": [],
      "stateMutability": "nonpayable",
      "type": "function"
    },
    {
      "inputs": [
        {
          "internalType": "bytes4",
          "name": "interfaceId",
          "type": "bytes4"
        }
      ],
      "name": "supportsInterface",
      "outputs": [
        {
          "internalType": "bool",
          "name": "",
          "type": "bool"
        }
      ],
      "stateMutability": "view",
      "type": "function"
    },
    {
      "inputs": [
        {
          "internalType": "uint256",
          "name": "",
          "type": "uint256"
        }
      ],
      "name": "uri",
      "outputs": [
        {
          "internalType": "string",
          "name": "",
          "type": "string"
        }
      ],
      "stateMutability": "pure",
      "type": "function"
    }
  ],
  "bytecode": "0x608080604052346100165761125f908161001c8239f35b600080fdfe608080604052600436101561001357600080fd5b6000803560e01c918262fdd58e146100cb575050806301ffc9a7146100c25780630e89341c146100b9578063156e29f6146100b05780632eb2c2d6146100a75780634e1273f41461009e578063a22cb46514610095578063e985e9c51461008c5763f242432a14610084575b600080fd5b61007f61096d565b5061007f6108ca565b5061007f6107d8565b5061007f610693565b5061007f6105ad565b5061007f610382565b5061007f6102e2565b5061007f610182565b346101365760407ffffffffffffffffffffffffffffffffffffffffffffffffffffffffffffffffc36011261013657604060209273ffffffffffffffffffffffffffffffffffffffff6004356101208161013a565b1681528084528181206024358252845220548152f35b5080fd5b73ffffffffffffffffffffffffffffffffffffffff81160361007f57565b7fffffffff0000000000000000000000000000000000000000000000000000000081160361007f57565b503461007f5760207ffffffffffffffffffffffffffffffffffffffffffffffffffffffffffffffffc36011261007f5760207fffffffff000000000000000000000000000000000000000000000000000000006004356101e181610158565b167f01ffc9a7000000000000000000000000000000000000000000000000000000008114908115610249575b811561021f575b506040519015158152f35b7f0e89341c0000000000000000000000000000000000000000000000000000000091501438610214565b7fd9b67a26000000000000000000000000000000000000000000000000000000008114915061020d565b91908251928382526000905b8482106102ca5750601f84602094957fffffffffffffffffffffffffffffffffffffffffffffffffffffffffffffffe093116102bd575b0116010190565b60008582860101526102b6565b9060209081808285010151908286010152019061027f565b503461007f5760207ffffffffffffffffffffffffffffffffffffffffffffffffffffffffffffffffc36011261007f576103716040516040810181811067ffffffffffffffff821117610375575b604052600381527f75726900000000000000000000000000000000000000000000000000000000006020820152604051918291602083526020830190610273565b0390f35b61037d610c70565b610330565b503461007f5760607ffffffffffffffffffffffffffffffffffffffffffffffffffffffffffffffffc36011261007f5761048a6004356103c18161013a565b6024356044356103cf6111b7565b61040c836103fd8673ffffffffffffffffffffffffffffffffffffffff166000526000602052604060002090565b90600052602052604060002090565b610417838254610c58565b905573ffffffffffffffffffffffffffffffffffffffff8416938460006040517fc3d58168c5ae7397731d063d5bbf3d657854427343f4c083240f7aacaa2d0f62339180610473898b8360209093929193604081019481520152565b0390a4600092903b61049657505050501515610d94565b60405160018152602090f35b6104f9917fffffffff000000000000000000000000000000000000000000000000000000009495602092856040518096819582947ff23a6e61000000000000000000000000000000000000000000000000000000009c8d855233600486016111e9565b03925af1918215610541575b91610513575b501614610d94565b610534915060203d811161053a575b61052c8183610ca0565b810190610cee565b3861050b565b503d610522565b610549610d87565b610505565b9181601f8401121561007f5782359167ffffffffffffffff831161007f576020808501948460051b01011161007f57565b9181601f8401121561007f5782359167ffffffffffffffff831161007f576020838186019501011161007f57565b503461007f5760a07ffffffffffffffffffffffffffffffffffffffffffffffffffffffffffffffffc36011261007f576004356105e98161013a565b6024356105f58161013a565b67ffffffffffffffff9160443583811161007f5761061790369060040161054e565b9060643585811161007f5761063090369060040161054e565b92909160843596871161007f5761064e61065697369060040161057f565b969095610f72565b005b6020908160408183019282815285518094520193019160005b82811061067f575050505090565b835185529381019392810192600101610671565b503461007f576040807ffffffffffffffffffffffffffffffffffffffffffffffffffffffffffffffffc36011261007f5767ffffffffffffffff9060043582811161007f576106e690369060040161054e565b91909260243590811161007f5761070190369060040161054e565b939061070e858514610df9565b61071784611174565b9361072484519586610ca0565b8085527fffffffffffffffffffffffffffffffffffffffffffffffffffffffffffffffe061075182611174565b016020903682880137600091825b818110610773578651806103718a82610658565b8073ffffffffffffffffffffffffffffffffffffffff610796600193858a610e8e565b356107a08161013a565b1685528484526107c68886206107b7838d8a610e8e565b35600052602052604060002090565b546107d1828b611195565b520161075f565b503461007f5760407ffffffffffffffffffffffffffffffffffffffffffffffffffffffffffffffffc36011261007f576004356108148161013a565b6024359081151580920361007f5773ffffffffffffffffffffffffffffffffffffffff9033600052600160205261086f8160406000209073ffffffffffffffffffffffffffffffffffffffff16600052602052604060002090565b7fffffffffffffffffffffffffffffffffffffffffffffffffffffffffffffff0081541660ff851617905560405192835216907f17307eab39ab6107e8899845ad3d59bd9653f200f220920489ca2b5937696c3160203392a3005b503461007f5760407ffffffffffffffffffffffffffffffffffffffffffffffffffffffffffffffffc36011261007f57602060ff61096160043561090d8161013a565b73ffffffffffffffffffffffffffffffffffffffff6024359161092f8361013a565b166000526001845260406000209073ffffffffffffffffffffffffffffffffffffffff16600052602052604060002090565b54166040519015158152f35b503461007f5760a07ffffffffffffffffffffffffffffffffffffffffffffffffffffffffffffffffc36011261007f576004356109a98161013a565b6024356109b58161013a565b6084359160443560643567ffffffffffffffff851161007f576109df61065695369060040161057f565b9173ffffffffffffffffffffffffffffffffffffffff95868616968733148015610b44575b610a0d90610bac565b610a3b866103fd8973ffffffffffffffffffffffffffffffffffffffff166000526000602052604060002090565b610a46848254610c41565b9055610a76866103fd8473ffffffffffffffffffffffffffffffffffffffff166000526000602052604060002090565b610a81848254610c58565b9055811680976040517fc3d58168c5ae7397731d063d5bbf3d657854427343f4c083240f7aacaa2d0f62339180610ac6888c8360209093929193604081019481520152565b0390a4600094903b610adf575050505050501515610d94565b9560209291857fffffffff0000000000000000000000000000000000000000000000000000000097986104f9604051978896879586947ff23a6e61000000000000000000000000000000000000000000000000000000009e8f87523360048801610d45565b50610a0d610ba5610b9e33610b798b73ffffffffffffffffffffffffffffffffffffffff166000526001602052604060002090565b9073ffffffffffffffffffffffffffffffffffffffff16600052602052604060002090565b5460ff1690565b9050610a04565b15610bb357565b60646040517f08c379a000000000000000000000000000000000000000000000000000000000815260206004820152600e60248201527f4e4f545f415554484f52495a45440000000000000000000000000000000000006044820152fd5b507f4e487b7100000000000000000000000000000000000000000000000000000000600052601160045260246000fd5b818110610c4c570390565b610c54610c11565b0390565b81198111610c64570190565b610c6c610c11565b0190565b507f4e487b7100000000000000000000000000000000000000000000000000000000600052604160045260246000fd5b90601f7fffffffffffffffffffffffffffffffffffffffffffffffffffffffffffffffe0910116810190811067ffffffffffffffff821117610ce157604052565b610ce9610c70565b604052565b9081602091031261007f5751610d0381610158565b90565b601f82602094937fffffffffffffffffffffffffffffffffffffffffffffffffffffffffffffffe0938186528686013760008582860101520116010190565b9192610d0396949160a09473ffffffffffffffffffffffffffffffffffffffff8092168552166020840152604083015260608201528160808201520191610d06565b506040513d6000823e3d90fd5b15610d9b57565b60646040517f08c379a000000000000000000000000000000000000000000000000000000000815260206004820152601060248201527f554e534146455f524543495049454e54000000000000000000000000000000006044820152fd5b15610e0057565b60646040517f08c379a000000000000000000000000000000000000000000000000000000000815260206004820152600f60248201527f4c454e4754485f4d49534d4154434800000000000000000000000000000000006044820152fd5b507f4e487b7100000000000000000000000000000000000000000000000000000000600052603260045260246000fd5b9190811015610e9f575b60051b0190565b610ea7610e5e565b610e98565b90918281527f07ffffffffffffffffffffffffffffffffffffffffffffffffffffffffffffff831161007f5760209260051b80928483013701016000815290565b9290610f0690610d039593604086526040860191610eac565b926020818503910152610eac565b969492610f6494610f5692610d039a989473ffffffffffffffffffffffffffffffffffffffff8092168b521660208a015260a060408a015260a0890191610eac565b918683036060880152610eac565b926080818503910152610d06565b90959392919496610f84888414610df9565b73ffffffffffffffffffffffffffffffffffffffff96878316978833148015611138575b610fb190610bac565b8760005b8b878083106110a0575050505081168098887f4a39dc06d4c0dbc64b70af90fd698a233a518aa5d07e595d983b8c0526c8f7fb610ffc8d6040519182918c8c339785610eed565b0390a4600095903b61101d575050505050505061101b91501515610d94565b565b6040979596975198899586957fbc197c81000000000000000000000000000000000000000000000000000000009a8b88523396600489019761105e98610f14565b0381845a94602095f161101b937fffffffff00000000000000000000000000000000000000000000000000000000928215610541579161051357501614610d94565b6111266110bf846110b78161112e95600199610e8e565b35948d610e8e565b35926110ef816103fd8c73ffffffffffffffffffffffffffffffffffffffff166000526000602052604060002090565b6110fa858254610c41565b90556103fd8873ffffffffffffffffffffffffffffffffffffffff166000526000602052604060002090565b918254610c58565b9055018890610fb5565b50610fb161116d610b9e33610b798873ffffffffffffffffffffffffffffffffffffffff166000526001602052604060002090565b9050610fa8565b60209067ffffffffffffffff811161118d5760051b0190565b610ea7610c70565b60209181518110156111aa575b60051b010190565b6111b2610e5e565b6111a2565b604051906020820182811067ffffffffffffffff8211176111dc575b60405260008252565b6111e4610c70565b6111d3565b909260a09273ffffffffffffffffffffffffffffffffffffffff610d0396951683526000602084015260408301526060820152816080820152019061027356fea26469706673582212200e7f2f4eeec30e68f3814a54aed8de2479795ffd4a6cc6ddc509e06dd1fb212364736f6c634300080e0033",
  "linkReferences": {},
  "deployedLinkReferences": {}
}