{
  "_format": "hh-sol-artifact-1",
  "contractName": "ConduitController",
  "sourceName": "contracts/conduit/ConduitController.sol",
  "abi": [
    {
      "inputs": [],
      "stateMutability": "nonpayable",
      "type": "constructor"
    },
    {
      "inputs": [
        {
          "internalType": "address",
          "name": "conduit",
          "type": "address"
        }
      ],
      "name": "CallerIsNotNewPotentialOwner",
      "type": "error"
    },
    {
      "inputs": [
        {
          "internalType": "address",
          "name": "conduit",
          "type": "address"
        }
      ],
      "name": "CallerIsNotOwner",
      "type": "error"
    },
    {
      "inputs": [
        {
          "internalType": "address",
          "name": "conduit",
          "type": "address"
        }
      ],
      "name": "ChannelOutOfRange",
      "type": "error"
    },
    {
      "inputs": [
        {
          "internalType": "address",
          "name": "conduit",
          "type": "address"
        }
      ],
      "name": "ConduitAlreadyExists",
      "type": "error"
    },
    {
      "inputs": [],
      "name": "InvalidCreator",
      "type": "error"
    },
    {
      "inputs": [],
      "name": "InvalidInitialOwner",
      "type": "error"
    },
    {
      "inputs": [
        {
          "internalType": "address",
          "name": "conduit",
          "type": "address"
        },
        {
          "internalType": "address",
          "name": "newPotentialOwner",
          "type": "address"
        }
      ],
      "name": "NewPotentialOwnerAlreadySet",
      "type": "error"
    },
    {
      "inputs": [
        {
          "internalType": "address",
          "name": "conduit",
          "type": "address"
        }
      ],
      "name": "NewPotentialOwnerIsZeroAddress",
      "type": "error"
    },
    {
      "inputs": [],
      "name": "NoConduit",
      "type": "error"
    },
    {
      "inputs": [
        {
          "internalType": "address",
          "name": "conduit",
          "type": "address"
        }
      ],
      "name": "NoPotentialOwnerCurrentlySet",
      "type": "error"
    },
    {
      "anonymous": false,
      "inputs": [
        {
          "indexed": false,
          "internalType": "address",
          "name": "conduit",
          "type": "address"
        },
        {
          "indexed": false,
          "internalType": "bytes32",
          "name": "conduitKey",
          "type": "bytes32"
        }
      ],
      "name": "NewConduit",
      "type": "event"
    },
    {
      "anonymous": false,
      "inputs": [
        {
          "indexed": true,
          "internalType": "address",
          "name": "conduit",
          "type": "address"
        },
        {
          "indexed": true,
          "internalType": "address",
          "name": "previousOwner",
          "type": "address"
        },
        {
          "indexed": true,
          "internalType": "address",
          "name": "newOwner",
          "type": "address"
        }
      ],
      "name": "OwnershipTransferred",
      "type": "event"
    },
    {
      "anonymous": false,
      "inputs": [
        {
          "indexed": true,
          "internalType": "address",
          "name": "newPotentialOwner",
          "type": "address"
        }
      ],
      "name": "PotentialOwnerUpdated",
      "type": "event"
    },
    {
      "inputs": [
        {
          "internalType": "address",
          "name": "conduit",
          "type": "address"
        }
      ],
      "name": "acceptOwnership",
      "outputs": [],
      "stateMutability": "nonpayable",
      "type": "function"
    },
    {
      "inputs": [
        {
          "internalType": "address",
          "name": "conduit",
          "type": "address"
        }
      ],
      "name": "cancelOwnershipTransfer",
      "outputs": [],
      "stateMutability": "nonpayable",
      "type": "function"
    },
    {
      "inputs": [
        {
          "internalType": "bytes32",
          "name": "conduitKey",
          "type": "bytes32"
        },
        {
          "internalType": "address",
          "name": "initialOwner",
          "type": "address"
        }
      ],
      "name": "createConduit",
      "outputs": [
        {
          "internalType": "address",
          "name": "conduit",
          "type": "address"
        }
      ],
      "stateMutability": "nonpayable",
      "type": "function"
    },
    {
      "inputs": [
        {
          "internalType": "address",
          "name": "conduit",
          "type": "address"
        },
        {
          "internalType": "uint256",
          "name": "channelIndex",
          "type": "uint256"
        }
      ],
      "name": "getChannel",
      "outputs": [
        {
          "internalType": "address",
          "name": "channel",
          "type": "address"
        }
      ],
      "stateMutability": "view",
      "type": "function"
    },
    {
      "inputs": [
        {
          "internalType": "address",
          "name": "conduit",
          "type": "address"
        },
        {
          "internalType": "address",
          "name": "channel",
          "type": "address"
        }
      ],
      "name": "getChannelStatus",
      "outputs": [
        {
          "internalType": "bool",
          "name": "isOpen",
          "type": "bool"
        }
      ],
      "stateMutability": "view",
      "type": "function"
    },
    {
      "inputs": [
        {
          "internalType": "address",
          "name": "conduit",
          "type": "address"
        }
      ],
      "name": "getChannels",
      "outputs": [
        {
          "internalType": "address[]",
          "name": "channels",
          "type": "address[]"
        }
      ],
      "stateMutability": "view",
      "type": "function"
    },
    {
      "inputs": [
        {
          "internalType": "bytes32",
          "name": "conduitKey",
          "type": "bytes32"
        }
      ],
      "name": "getConduit",
      "outputs": [
        {
          "internalType": "address",
          "name": "conduit",
          "type": "address"
        },
        {
          "internalType": "bool",
          "name": "exists",
          "type": "bool"
        }
      ],
      "stateMutability": "view",
      "type": "function"
    },
    {
      "inputs": [],
      "name": "getConduitCodeHashes",
      "outputs": [
        {
          "internalType": "bytes32",
          "name": "creationCodeHash",
          "type": "bytes32"
        },
        {
          "internalType": "bytes32",
          "name": "runtimeCodeHash",
          "type": "bytes32"
        }
      ],
      "stateMutability": "view",
      "type": "function"
    },
    {
      "inputs": [
        {
          "internalType": "address",
          "name": "conduit",
          "type": "address"
        }
      ],
      "name": "getKey",
      "outputs": [
        {
          "internalType": "bytes32",
          "name": "conduitKey",
          "type": "bytes32"
        }
      ],
      "stateMutability": "view",
      "type": "function"
    },
    {
      "inputs": [
        {
          "internalType": "address",
          "name": "conduit",
          "type": "address"
        }
      ],
      "name": "getPotentialOwner",
      "outputs": [
        {
          "internalType": "address",
          "name": "potentialOwner",
          "type": "address"
        }
      ],
      "stateMutability": "view",
      "type": "function"
    },
    {
      "inputs": [
        {
          "internalType": "address",
          "name": "conduit",
          "type": "address"
        }
      ],
      "name": "getTotalChannels",
      "outputs": [
        {
          "internalType": "uint256",
          "name": "totalChannels",
          "type": "uint256"
        }
      ],
      "stateMutability": "view",
      "type": "function"
    },
    {
      "inputs": [
        {
          "internalType": "address",
          "name": "conduit",
          "type": "address"
        }
      ],
      "name": "ownerOf",
      "outputs": [
        {
          "internalType": "address",
          "name": "owner",
          "type": "address"
        }
      ],
      "stateMutability": "view",
      "type": "function"
    },
    {
      "inputs": [
        {
          "internalType": "address",
          "name": "conduit",
          "type": "address"
        },
        {
          "internalType": "address",
          "name": "newPotentialOwner",
          "type": "address"
        }
      ],
      "name": "transferOwnership",
      "outputs": [],
      "stateMutability": "nonpayable",
      "type": "function"
    },
    {
      "inputs": [
        {
          "internalType": "address",
          "name": "conduit",
          "type": "address"
        },
        {
          "internalType": "address",
          "name": "channel",
          "type": "address"
        },
        {
          "internalType": "bool",
          "name": "isOpen",
          "type": "bool"
        }
      ],
      "name": "updateChannel",
      "outputs": [],
      "stateMutability": "nonpayable",
      "type": "function"
    }
  ],
  "bytecode": "0x60c08060405234620000ea57600090610c9f906001600160401b03603f8301601f1916820181811183821017620000da575b604052828252620021e49160208101908484833951902060805260405192839281840192831184841017620000ca575b8339039082f58015620000ba575b6001600160a01b03163f60a0526040516120d0908162000114823960805181818161027501528181610abe0152610bda015260a05181818161029801528181610b540152610c7d0152f35b620000c462000106565b6200006f565b620000d4620000ef565b62000061565b620000e4620000ef565b62000031565b600080fd5b50634e487b7160e01b600052604160045260246000fd5b506040513d6000823e3d90fdfe60806040526004361015610013575b600080fd5b60003560e01c8063027cc7641461012b5780630a96ad391461012257806313ad9cab1461011957806314afd79e1461011057806333bc8572146101075780634e3f9580146100fe57806351710e45146100f55780636d435421146100ec5780636e9bfd9f146100e3578063794593bc146100da5780637b37e561146100d15780638b9e028b146100c8578063906c87cc146100bf576393790f44146100b757600080fd5b61000e6110e8565b5061000e611092565b5061000e610ff2565b5061000e610e9c565b5061000e610b7c565b5061000e610a4c565b5061000e6108ed565b5061000e6106b1565b5061000e61065d565b5061000e6105d7565b5061000e610581565b5061000e6102be565b5061000e61025d565b5061000e61017a565b6004359073ffffffffffffffffffffffffffffffffffffffff8216820361000e57565b6024359073ffffffffffffffffffffffffffffffffffffffff8216820361000e57565b503461000e57604060031936011261000e57610194610134565b602435906101a1816113d0565b73ffffffffffffffffffffffffffffffffffffffff8091169160008381528060205260036040822001548210156102215790600360408361021d966101ec955280602052200161125c565b90549060031b1c166040519182918291909173ffffffffffffffffffffffffffffffffffffffff6020820193169052565b0390f35b602484604051907f6ceb340b0000000000000000000000000000000000000000000000000000000082526004820152fd5b600091031261000e57565b503461000e57600060031936011261000e57604080517f000000000000000000000000000000000000000000000000000000000000000081527f00000000000000000000000000000000000000000000000000000000000000006020820152f35b503461000e57606060031936011261000e576102d8610134565b6102e0610157565b90604435918215918215840361000e576102f981611361565b73ffffffffffffffffffffffffffffffffffffffff811690813b1561000e576040517fc4e8fcb500000000000000000000000000000000000000000000000000000000815273ffffffffffffffffffffffffffffffffffffffff8416600482015285151560248201526103a7926000908290604490829084905af18015610574575b61055b575b5073ffffffffffffffffffffffffffffffffffffffff166000526000602052604060002090565b9260048401926103d783859073ffffffffffffffffffffffffffffffffffffffff16600052602052604060002090565b549182159080610554575b156104275750505060036104239293016103fc828261132a565b54929073ffffffffffffffffffffffffffffffffffffffff16600052602052604060002090565b555b005b919493918161054b575b5061043857005b610485610423938560037fffffffffffffffffffffffffffffffffffffffffffffffffffffffffffffffff600098019201916104748354611200565b908082036104aa575b5050506112a3565b9073ffffffffffffffffffffffffffffffffffffffff16600052602052604060002090565b61051c6104ea916104e16104c1610542958861125c565b905473ffffffffffffffffffffffffffffffffffffffff9160031b1c1690565b9283918761125c565b90919082549060031b9173ffffffffffffffffffffffffffffffffffffffff9283811b93849216901b16911916179055565b859073ffffffffffffffffffffffffffffffffffffffff16600052602052604060002090565b5538808061047d565b90501538610431565b50806103e2565b8061056861056e92611191565b80610252565b38610380565b61057c6111f3565b61037b565b503461000e57602060031936011261000e57602061059d610134565b6105a6816113d0565b73ffffffffffffffffffffffffffffffffffffffff8091166000526000825260016040600020015416604051908152f35b503461000e57604060031936011261000e5760206106526105f6610134565b73ffffffffffffffffffffffffffffffffffffffff610613610157565b9161061d816113d0565b166000526000835260046040600020019073ffffffffffffffffffffffffffffffffffffffff16600052602052604060002090565b541515604051908152f35b503461000e57602060031936011261000e5773ffffffffffffffffffffffffffffffffffffffff61068c610134565b610695816113d0565b1660005260006020526020600360406000200154604051908152f35b503461000e57602060031936011261000e576106cb610134565b6106d4816113d0565b61073a61072160026107068473ffffffffffffffffffffffffffffffffffffffff166000526000602052604060002090565b015473ffffffffffffffffffffffffffffffffffffffff1690565b73ffffffffffffffffffffffffffffffffffffffff1690565b33036108a4576104259060007f11a3cf439fb225bfe74225716b6774765670ec1060e3796802e62139d69974da81604051a26107c4600261079b8373ffffffffffffffffffffffffffffffffffffffff166000526000602052604060002090565b017fffffffffffffffffffffffff00000000000000000000000000000000000000008154169055565b73ffffffffffffffffffffffffffffffffffffffff33908061080b60016107068673ffffffffffffffffffffffffffffffffffffffff166000526000602052604060002090565b169083167fc8894f26f396ce8c004245c8b7cd1b92103a6e4302fcbab883987149ac01b7ec6000604051a46001610863339273ffffffffffffffffffffffffffffffffffffffff166000526000602052604060002090565b019073ffffffffffffffffffffffffffffffffffffffff167fffffffffffffffffffffffff0000000000000000000000000000000000000000825416179055565b6040517f88c3a11500000000000000000000000000000000000000000000000000000000815273ffffffffffffffffffffffffffffffffffffffff919091166004820152602490fd5b503461000e57604060031936011261000e57610907610134565b61090f610157565b9061091981611361565b73ffffffffffffffffffffffffffffffffffffffff808316908115610a19575061096b61072160026107068573ffffffffffffffffffffffffffffffffffffffff166000526000602052604060002090565b81146109c95761086361042593926002927f11a3cf439fb225bfe74225716b6774765670ec1060e3796802e62139d69974da6000604051a273ffffffffffffffffffffffffffffffffffffffff166000526000602052604060002090565b506040517fcbc080ca00000000000000000000000000000000000000000000000000000000815273ffffffffffffffffffffffffffffffffffffffff918216600482015291166024820152604490fd5b82602491604051917fa388d263000000000000000000000000000000000000000000000000000000008352166004820152fd5b503461000e57602060031936011261000e576040517fff00000000000000000000000000000000000000000000000000000000000000602082019081523060601b7fffffffffffffffffffffffffffffffffffffffff00000000000000000000000016602183015260043560358301527f0000000000000000000000000000000000000000000000000000000000000000605583015273ffffffffffffffffffffffffffffffffffffffff91610b2d81607581015b037fffffffffffffffffffffffffffffffffffffffffffffffffffffffffffffffe081018352826111b2565b519020604080519290911673ffffffffffffffffffffffffffffffffffffffff811683523f7f000000000000000000000000000000000000000000000000000000000000000014602083015290f35b503461000e5760408060031936011261000e57600435610b9a610157565b73ffffffffffffffffffffffffffffffffffffffff91828216908115610e7357338160601c03610e4a57610c7861072186516020810190610c5c81610b017f0000000000000000000000000000000000000000000000000000000000000000883087917fffffffffffffffffffffffffffffffffffffffff000000000000000000000000605594927fff00000000000000000000000000000000000000000000000000000000000000855260601b166001840152601583015260358201520190565b51902073ffffffffffffffffffffffffffffffffffffffff1690565b92833f7f000000000000000000000000000000000000000000000000000000000000000014610e0457947f4397af6128d529b8ae0442f99db1296d5136062597a15bbc61c1b2a6431a7d15610d9e838060009961021d989796865180610c9f8082019082821067ffffffffffffffff831117610df7575b6113fc833903908df515610dea575b610d70610d2b8973ffffffffffffffffffffffffffffffffffffffff166000526000602052604060002090565b91600183019073ffffffffffffffffffffffffffffffffffffffff167fffffffffffffffffffffffff0000000000000000000000000000000000000000825416179055565b55835173ffffffffffffffffffffffffffffffffffffffff8716815260208101919091529081906040820190565b0390a15194859483167fc8894f26f396ce8c004245c8b7cd1b92103a6e4302fcbab883987149ac01b7ec8287a473ffffffffffffffffffffffffffffffffffffffff1682526020820190565b610df26111f3565b610cfe565b610dff611161565b610cef565b85517f6328ccb200000000000000000000000000000000000000000000000000000000815273ffffffffffffffffffffffffffffffffffffffff85166004820152602490fd5b600485517fcb6e5344000000000000000000000000000000000000000000000000000000008152fd5b600485517f99faaa04000000000000000000000000000000000000000000000000000000008152fd5b503461000e57602060031936011261000e57610eb6610134565b610ebf81611361565b73ffffffffffffffffffffffffffffffffffffffff908181166000928184528360205260026040852001541615610f705750610f44600291837f11a3cf439fb225bfe74225716b6774765670ec1060e3796802e62139d69974da81604051a273ffffffffffffffffffffffffffffffffffffffff166000526000602052604060002090565b017fffffffffffffffffffffffff00000000000000000000000000000000000000008154169055604051f35b602490604051907f6b0136160000000000000000000000000000000000000000000000000000000082526004820152fd5b6020908160408183019282815285518094520193019160005b828110610fc8575050505090565b835173ffffffffffffffffffffffffffffffffffffffff1685529381019392810192600101610fba565b503461000e5760208060031936011261000e5761100d610134565b90611017826113d0565b73ffffffffffffffffffffffffffffffffffffffff91826000911681528082526003604082200192604051908193808654938481520195845280842093915b8383106110795761021d8661106d818a03826111b2565b60405191829182610fa1565b8454811687529581019560019485019490920191611056565b503461000e57602060031936011261000e5760206110ae610134565b6110b7816113d0565b73ffffffffffffffffffffffffffffffffffffffff8091166000526000825260026040600020015416604051908152f35b503461000e57602060031936011261000e5773ffffffffffffffffffffffffffffffffffffffff611117610134565b166000526000602052604060002054801561113757602090604051908152f35b60046040517f4ca82090000000000000000000000000000000000000000000000000000000008152fd5b507f4e487b7100000000000000000000000000000000000000000000000000000000600052604160045260246000fd5b67ffffffffffffffff81116111a557604052565b6111ad611161565b604052565b90601f7fffffffffffffffffffffffffffffffffffffffffffffffffffffffffffffffe0910116810190811067ffffffffffffffff8211176111a557604052565b506040513d6000823e3d90fd5b6001811061122d577fffffffffffffffffffffffffffffffffffffffffffffffffffffffffffffffff0190565b7f4e487b7100000000000000000000000000000000000000000000000000000000600052601160045260246000fd5b80548210156112745760005260206000200190600090565b7f4e487b7100000000000000000000000000000000000000000000000000000000600052603260045260246000fd5b805480156112fb577fffffffffffffffffffffffffffffffffffffffffffffffffffffffffffffffff01906112d8828261125c565b73ffffffffffffffffffffffffffffffffffffffff82549160031b1b1916905555565b7f4e487b7100000000000000000000000000000000000000000000000000000000600052603160045260246000fd5b906104ea6113529280549068010000000000000000821015611354575b60018201815561125c565b565b61135c611161565b611347565b61136a816113d0565b73ffffffffffffffffffffffffffffffffffffffff8091169081600052600060205260016040600020015416330361139f5750565b602490604051907fd4ed9a170000000000000000000000000000000000000000000000000000000082526004820152fd5b73ffffffffffffffffffffffffffffffffffffffff166000526000602052604060002054156111375756fe60a080604052346100235733608052610c7690816100298239608051816103c50152f35b600080fdfe60806040526004361015610013575b600080fd5b6000803560e01c9081634ce34aa21461006657508063899e104c1461005d5780638df25d92146100545763c4e8fcb51461004c57600080fd5b61000e610362565b5061000e61027f565b5061000e6101ab565b346101465760207ffffffffffffffffffffffffffffffffffffffffffffffffffffffffffffffffc3601126101465760043567ffffffffffffffff8111610142576100b5903690600401610149565b9133815280602052604081205415610116575b8281106100fa576040517f4ce34aa2000000000000000000000000000000000000000000000000000000008152602090f35b8061011061010b6001938686610532565b6105c4565b016100c8565b807f93daadf2000000000000000000000000000000000000000000000000000000006024925233600452fd5b5080fd5b80fd5b9181601f8401121561000e5782359167ffffffffffffffff831161000e5760208085019460c0850201011161000e57565b9181601f8401121561000e5782359167ffffffffffffffff831161000e576020808501948460051b01011161000e57565b503461000e5760407ffffffffffffffffffffffffffffffffffffffffffffffffffffffffffffffffc36011261000e5767ffffffffffffffff60043581811161000e576101fc903690600401610149565b9160243590811161000e5761021590369060040161017a565b919092600033815280602052604081205415610116575b8181106102685761023d8486610acb565b6040517f899e104c000000000000000000000000000000000000000000000000000000008152602090f35b8061027961010b6001938587610532565b0161022c565b503461000e5760207ffffffffffffffffffffffffffffffffffffffffffffffffffffffffffffffffc36011261000e5760043567ffffffffffffffff811161000e576102cf90369060040161017a565b33600052600060205260406000205415610316576102ec91610acb565b60206040517f8df25d92000000000000000000000000000000000000000000000000000000008152f35b7f93daadf2000000000000000000000000000000000000000000000000000000006000523360045260246000fd5b73ffffffffffffffffffffffffffffffffffffffff81160361000e57565b503461000e5760407ffffffffffffffffffffffffffffffffffffffffffffffffffffffffffffffffc36011261000e5760043561039e81610344565b6024359081151580830361000e5773ffffffffffffffffffffffffffffffffffffffff90817f00000000000000000000000000000000000000000000000000000000000000001633036105085761041f6104188473ffffffffffffffffffffffffffffffffffffffff166000526000602052604060002090565b5460ff1690565b1515146104b657816104a6846104767fae63067d43ac07563b7eb8db6595635fc77f1578a2a5ea06ba91b63e2afa37e29573ffffffffffffffffffffffffffffffffffffffff166000526000602052604060002090565b9060ff7fffffffffffffffffffffffffffffffffffffffffffffffffffffffffffffff0083541691151516179055565b60405193151584521691602090a2005b506040517f924e341e00000000000000000000000000000000000000000000000000000000815273ffffffffffffffffffffffffffffffffffffffff9190911660048201529015156024820152604490fd5b60046040517f6d5769be000000000000000000000000000000000000000000000000000000008152fd5b91908110156105425760c0020190565b7f4e487b7100000000000000000000000000000000000000000000000000000000600052603260045260246000fd5b6004111561057b57565b7f4e487b7100000000000000000000000000000000000000000000000000000000600052602160045260246000fd5b35600481101561000e5790565b356105c181610344565b90565b60016105cf826105aa565b6105d881610571565b0361061357806105ed602061061193016105b7565b906105fa604082016105b7565b60a0610608606084016105b7565b92013592610712565b565b600261061e826105aa565b61062781610571565b0361069657600160a08201350361066c5780610648602061061193016105b7565b90610655604082016105b7565b6080610663606084016105b7565b92013592610882565b60046040517fefcc00b1000000000000000000000000000000000000000000000000000000008152fd5b60036106a1826105aa565b6106aa81610571565b036106e857806106bf602061061193016105b7565b6106cb604083016105b7565b6106d7606084016105b7565b90608060a085013594013592610990565b60046040517f7932f1fc000000000000000000000000000000000000000000000000000000008152fd5b9092604051926000947f23b872dd00000000000000000000000000000000000000000000000000000000865280600452816024528260445260208660648180885af1803d15601f3d1160018a51141617163d151581161561077c575b505050505050604052606052565b80863b15151661076e579087959691156107bc57602486887f5f15d672000000000000000000000000000000000000000000000000000000008252600452fd5b156107f657506084947f98891923000000000000000000000000000000000000000000000000000000008552600452602452604452606452fd5b3d610835575b5060a4947ff486bc8700000000000000000000000000000000000000000000000000000000855260045260245260445281606452608452fd5b601f3d0160051c9060051c908060030291808211610869575b505060205a91011061086057856107fc565b833d81803e3d90fd5b8080600392028380020360091c9203020101868061084e565b9092813b1561096257604051926000947f23b872dd000000000000000000000000000000000000000000000000000000008652806004528160245282604452858060648180885af1156108db5750505050604052606052565b8593943d61091e575b5060a4947ff486bc870000000000000000000000000000000000000000000000000000000085526004526024526044526064526001608452fd5b601f3d0160051c9060051c908060030291808211610949575b505060205a91011061086057856108e4565b8080600392028380020360091c92030201018680610937565b507f5f15d6720000000000000000000000000000000000000000000000000000000060005260045260246000fd5b929093833b15610a9d57604051936080519160a0519360c051956000987ff242432a000000000000000000000000000000000000000000000000000000008a528060045281602452826044528360645260a06084528960a452898060c48180895af115610a0d57505050505060805260a05260c052604052606052565b89949550883d610a50575b5060a4957ff486bc87000000000000000000000000000000000000000000000000000000008652600452602452604452606452608452fd5b601f3d0160051c9060051c908060030291808211610a84575b505060205a910110610a7b5786610a18565b843d81803e3d90fd5b8080600392028380020360091c92030201018780610a69565b837f5f15d6720000000000000000000000000000000000000000000000000000000060005260045260246000fd5b90816020907f2eb2c2d600000000000000000000000000000000000000000000000000000000825260005b838110610b095750505050506080604052565b8435820194853590813b156109625760a09182880192833560059181831b948b60c08097608094818301868501351490606085013514169201013584141615610c165789019a890160243760061b9360e0850160a452610104850194600086526040019060c437600080858982865af115610b8a5750505050600101610af6565b869394503d610bcb575b507fafc445e20000000000000000000000000000000000000000000000000000000060005260045260645260849081510190526000fd5b84601f3d01821c911c90600381810292808311610bff575b505050835a910110610bf55784610b94565b3d6000803e3d6000fd5b8080028380020360091c9203020101858080610be3565b7feba2084c0000000000000000000000000000000000000000000000000000000060005260046000fdfea26469706673582212206caf6bec6976467e58cda03d7a7fccf36c724b4dd6d5ab4d5befa79145386b7c64736f6c634300080e0033a2646970667358221220f7b8beb921d9278a910c1a6453ef409850395991765d2c61744e788c8f6e4e6364736f6c634300080e003360a080604052346100235733608052610c7690816100298239608051816103c50152f35b600080fdfe60806040526004361015610013575b600080fd5b6000803560e01c9081634ce34aa21461006657508063899e104c1461005d5780638df25d92146100545763c4e8fcb51461004c57600080fd5b61000e610362565b5061000e61027f565b5061000e6101ab565b346101465760207ffffffffffffffffffffffffffffffffffffffffffffffffffffffffffffffffc3601126101465760043567ffffffffffffffff8111610142576100b5903690600401610149565b9133815280602052604081205415610116575b8281106100fa576040517f4ce34aa2000000000000000000000000000000000000000000000000000000008152602090f35b8061011061010b6001938686610532565b6105c4565b016100c8565b807f93daadf2000000000000000000000000000000000000000000000000000000006024925233600452fd5b5080fd5b80fd5b9181601f8401121561000e5782359167ffffffffffffffff831161000e5760208085019460c0850201011161000e57565b9181601f8401121561000e5782359167ffffffffffffffff831161000e576020808501948460051b01011161000e57565b503461000e5760407ffffffffffffffffffffffffffffffffffffffffffffffffffffffffffffffffc36011261000e5767ffffffffffffffff60043581811161000e576101fc903690600401610149565b9160243590811161000e5761021590369060040161017a565b919092600033815280602052604081205415610116575b8181106102685761023d8486610acb565b6040517f899e104c000000000000000000000000000000000000000000000000000000008152602090f35b8061027961010b6001938587610532565b0161022c565b503461000e5760207ffffffffffffffffffffffffffffffffffffffffffffffffffffffffffffffffc36011261000e5760043567ffffffffffffffff811161000e576102cf90369060040161017a565b33600052600060205260406000205415610316576102ec91610acb565b60206040517f8df25d92000000000000000000000000000000000000000000000000000000008152f35b7f93daadf2000000000000000000000000000000000000000000000000000000006000523360045260246000fd5b73ffffffffffffffffffffffffffffffffffffffff81160361000e57565b503461000e5760407ffffffffffffffffffffffffffffffffffffffffffffffffffffffffffffffffc36011261000e5760043561039e81610344565b6024359081151580830361000e5773ffffffffffffffffffffffffffffffffffffffff90817f00000000000000000000000000000000000000000000000000000000000000001633036105085761041f6104188473ffffffffffffffffffffffffffffffffffffffff166000526000602052604060002090565b5460ff1690565b1515146104b657816104a6846104767fae63067d43ac07563b7eb8db6595635fc77f1578a2a5ea06ba91b63e2afa37e29573ffffffffffffffffffffffffffffffffffffffff166000526000602052604060002090565b9060ff7fffffffffffffffffffffffffffffffffffffffffffffffffffffffffffffff0083541691151516179055565b60405193151584521691602090a2005b506040517f924e341e00000000000000000000000000000000000000000000000000000000815273ffffffffffffffffffffffffffffffffffffffff9190911660048201529015156024820152604490fd5b60046040517f6d5769be000000000000000000000000000000000000000000000000000000008152fd5b91908110156105425760c0020190565b7f4e487b7100000000000000000000000000000000000000000000000000000000600052603260045260246000fd5b6004111561057b57565b7f4e487b7100000000000000000000000000000000000000000000000000000000600052602160045260246000fd5b35600481101561000e5790565b356105c181610344565b90565b60016105cf826105aa565b6105d881610571565b0361061357806105ed602061061193016105b7565b906105fa604082016105b7565b60a0610608606084016105b7565b92013592610712565b565b600261061e826105aa565b61062781610571565b0361069657600160a08201350361066c5780610648602061061193016105b7565b90610655604082016105b7565b6080610663606084016105b7565b92013592610882565b60046040517fefcc00b1000000000000000000000000000000000000000000000000000000008152fd5b60036106a1826105aa565b6106aa81610571565b036106e857806106bf602061061193016105b7565b6106cb604083016105b7565b6106d7606084016105b7565b90608060a085013594013592610990565b60046040517f7932f1fc000000000000000000000000000000000000000000000000000000008152fd5b9092604051926000947f23b872dd00000000000000000000000000000000000000000000000000000000865280600452816024528260445260208660648180885af1803d15601f3d1160018a51141617163d151581161561077c575b505050505050604052606052565b80863b15151661076e579087959691156107bc57602486887f5f15d672000000000000000000000000000000000000000000000000000000008252600452fd5b156107f657506084947f98891923000000000000000000000000000000000000000000000000000000008552600452602452604452606452fd5b3d610835575b5060a4947ff486bc8700000000000000000000000000000000000000000000000000000000855260045260245260445281606452608452fd5b601f3d0160051c9060051c908060030291808211610869575b505060205a91011061086057856107fc565b833d81803e3d90fd5b8080600392028380020360091c9203020101868061084e565b9092813b1561096257604051926000947f23b872dd000000000000000000000000000000000000000000000000000000008652806004528160245282604452858060648180885af1156108db5750505050604052606052565b8593943d61091e575b5060a4947ff486bc870000000000000000000000000000000000000000000000000000000085526004526024526044526064526001608452fd5b601f3d0160051c9060051c908060030291808211610949575b505060205a91011061086057856108e4565b8080600392028380020360091c92030201018680610937565b507f5f15d6720000000000000000000000000000000000000000000000000000000060005260045260246000fd5b929093833b15610a9d57604051936080519160a0519360c051956000987ff242432a000000000000000000000000000000000000000000000000000000008a528060045281602452826044528360645260a06084528960a452898060c48180895af115610a0d57505050505060805260a05260c052604052606052565b89949550883d610a50575b5060a4957ff486bc87000000000000000000000000000000000000000000000000000000008652600452602452604452606452608452fd5b601f3d0160051c9060051c908060030291808211610a84575b505060205a910110610a7b5786610a18565b843d81803e3d90fd5b8080600392028380020360091c92030201018780610a69565b837f5f15d6720000000000000000000000000000000000000000000000000000000060005260045260246000fd5b90816020907f2eb2c2d600000000000000000000000000000000000000000000000000000000825260005b838110610b095750505050506080604052565b8435820194853590813b156109625760a09182880192833560059181831b948b60c08097608094818301868501351490606085013514169201013584141615610c165789019a890160243760061b9360e0850160a452610104850194600086526040019060c437600080858982865af115610b8a5750505050600101610af6565b869394503d610bcb575b507fafc445e20000000000000000000000000000000000000000000000000000000060005260045260645260849081510190526000fd5b84601f3d01821c911c90600381810292808311610bff575b505050835a910110610bf55784610b94565b3d6000803e3d6000fd5b8080028380020360091c9203020101858080610be3565b7feba2084c0000000000000000000000000000000000000000000000000000000060005260046000fdfea26469706673582212206caf6bec6976467e58cda03d7a7fccf36c724b4dd6d5ab4d5befa79145386b7c64736f6c634300080e0033",
  "linkReferences": {},
  "deployedLinkReferences": {}
}